:020000040800F2
:1000000070090020D55600081D5500081F5500082E
:1000100000000000000000000000000000000000E0
:100020000000000000000000000000002155000852
:1000300000000000000000002355000825550008BE
:10004000671200087B150008E3180008E71800088D
:10005000EB180008EB220008972F00080331000876
:100060003B4000084340000833480008174F000891
:10007000BB5000086752000877560008FF5600087A
:10008000015700080357000800000000055700084A
:1000900007570008095700080B5700080D570008BC
:1000A0000F5700082D550008115700083755000854
:1000B000135700080000000015570008F0B5A5B060
:1000C00004000D002A9E00BF73A003C86F4603C73B
:1000D000089506A83B2146540020119004940392F1
:1000E000029313E0039C3500049F21780898B847D9
:1000F0000890002800D1B6E01198401C1190641CB3
:100100006D1EF2D10497039880190390039800782C
:10011000252809D100260B960C960D960E960F9663
:1001200010960021039C0FE06A460021C943039802
:1001300001F04EF8060001D1119896E0D2D50126C3
:10014000E1E7080001210143641C20782028F8D051
:1001500023280CD02B2804D02D2805D0302809D0F6
:1001600085E008000221EEE708000421EBE7080023
:100170000821E8E708001021E5E713960AE0139A42
:10018000444B9A4205DA93009A18520010183038FE
:100190001390641C20780200303A0A2AEFD32078AA
:1001A0002E2803D00020C043129028E0641C207841
:1001B0002A280AD102980068029A10600268001D7D
:1001C000029B18601292641C19E02D2802D12D2286
:1001D000641C00E0002212960CE0002A09D1129B58
:1001E0002C4DAB4205DA9D00EB185B001818303837
:1001F0001290641C20780300303B0A2BEDD306AD2F
:1002000029872778390000BF25A000F0F3FF0028D8
:1002100001D0641C00E000273A202F54285C682895
:1002200004D1207868280AD1622005E06C2806D124
:1002300020786C2803D171203A216854641C16A8D8
:100240000A902378029A06A9049800F067F8611CC6
:100250000391002807D116AA06A9049800F0F8F91E
:10026000002800D452E70020C04325B0F0BD2A2862
:1002700083D10298026802601068121D029B1A6006
:100280001390002804D54242139208000421014330
:10029000641C84E7CBCCCC0C000000000000000004
:1002A000686A6C747A4C00000B0062281CD06828C5
:1002B0000DD06A2803D06C2823D0712821D11A6868
:1002C000D21D072082431A6003CA1A607047002AB1
:1002D00019681960086803D0091D196000B217E099
:1002E000091D196080B217E0002A196819600868B2
:1002F00003D0091D196040B20AE0091D1960C0B29F
:100300000AE0002A19681960086803D0091D1960FD
:10031000C1177047091D1960002170477CB50C009A
:1003200011001E0025693200253A00D14AE11C3A2D
:1003300000D182E0121F022A00D87EE00E3A00D1DE
:1003400004E1521F58D0093A77D0921E16D0521E9F
:1003500034D0521E022A70D9121F2FD0521F00D142
:1003600094E0521E48D0521E00D1DEE0D21E00D1D1
:10037000FAE0921E40D0D21E3ED029E13A22A25C81
:100380006C2A09D06069421C62610A680A601368BD
:10039000121D0A602B5425E10A680A601368121DB9
:1003A0000A60009300210191C94321636A4621003C
:1003B00000F0D0F9002800D414E100E101223A2035
:1003C000205CFFF771FF03C4083C002904DA606970
:1003D000411C61612D210DE0208F810704D56069EA
:1003E000411C61612B2105E0C00721D56069411CDA
:1003F0006161202129541BE000223A20205CFFF794
:1004000053FF03C4083C3820205C000710D503CC00
:10041000083C002901D100280AD020203043782848
:1004200006D1606930212954401C411C61612E5461
:1004300060692818E060310084E00868C01D072268
:10044000904308600CC808600CC4083C03CC083C0E
:10045000C80F04D06069411C61612D210DE0208F1F
:10046000810704D56069411C61612B2105E0C0074B
:1004700004D56069411C61612021295460692818F4
:10048000E0603100200000F083FAABE03B20205C0C
:10049000002803D00024E44353A074E03A20205CF9
:1004A000622808D0682823D06A2812D06C282ED061
:1004B00071280ED02BE00A680A601068121D0A60CD
:1004C000002803D10024E4434DA05CE0E16A017000
:1004D00088E0086808600268001D0860002A03D1EF
:1004E0000024E44346A04EE0E06AC11703C279E06D
:1004F0000A680A601068121D0A60002804D10024EE
:10050000E44300BF3EA03EE0E16A01806AE00A6881
:100510000A601068121D0A60002803D10024E44319
:1005200037A030E0E16A01605CE0086808600268BA
:10053000001D08600020C0430021104003C4083C97
:10054000E5607821200000F06BF94BE06C223A2343
:10055000E2540B680B601A681B1D0B60002A29D13E
:100560000024E4432CA00EE03A22A25C6C2AF0D0D6
:10057000086808600568001D0860E560002D06D168
:100580000024E4432BA000F043FE201A76BD266B26
:10059000002E03D5280000F05FFE09E032000021A4
:1005A000280000F061FE002801D0401B00E0300070
:1005B000A06117E0210000F0CDF8002812D500203E
:1005C000C04376BD6069411C61612521295409E061
:1005D0006169481C606125226A54310002D0411CC7
:1005E00061612E54002076BD7072696E74665F730F
:1005F0003A20256E20646973616C6C6F77656400C6
:100600007072696E74663A2062616420256E2061A2
:100610007267756D656E74007072696E74665F7373
:100620003A2062616420256C7320617267756D6584
:100630006E7400007072696E74665F733A20626156
:100640006420257320617267756D656E740000000B
:10065000F8B506000C001700606B6169401A216A4A
:10066000401AA169401A616A401AE169401AA16AF8
:10067000401A00903820205C40070ED400980028D3
:100680000BDD05462021A068B047A06000285DD0A2
:10069000E06A401CE0626D1EF4D13A0063692100FB
:1006A000300000F0E9FC002850D1256A002D0ADD59
:1006B0003021A068B047A060002847D0E06A401C05
:1006C000E0626D1EF4D1A369E2682100300000F001
:1006D000D3FC00283AD1656A002D0ADD3021A068DC
:1006E000B047A060002831D0E06A401CE0626D1E77
:1006F000F4D1E369E068A16942182100300000F0FC
:10070000BBFC002822D1A56A002D0ADD3021A0689B
:10071000B047A060002819D0E06A401CE0626D1E5E
:10072000F4D13820205C40070ED5009800280BDD5E
:1007300005462021A068B047A060002806D0E06AE6
:10074000401CE0626D1EF4D10020F2BD0020C043C9
:10075000F2BD0000F0B5A7B004000D0016002F6B2D
:10076000002F00D5874F00F08AFD696B0A1800BF83
:1007700029A003C804AB03C3812A4AD200200694EF
:10078000009503900024002F32DD04AA316801A8EF
:1007900000F023FD05003CD43068002801D16D1E17
:1007A00037D4AF4224DB00984069401981280BD32D
:1007B0000098446307AA00990698FFF749FF039041
:1007C000002815D4009844610098406902902A00DE
:1007D00001A907A8029BC01800F070FD02984019FB
:1007E000009948613068002802D0361D7F1BCAE797
:1007F000069B009C0398002804D107AA210018003A
:10080000FFF726FF002802D100216161616327B054
:10081000F0BD0020C043FAE7000000000000000027
:10082000F2B586B0040025696F2901D1082707E0D9
:10083000084620210143782901D00A2700E010272B
:100840003C2603CC083C04AA03C26A46127E642AF2
:1008500003D06A46127E692A09D1002907DA04A862
:1008600003C800220023121A8B4104A80CC004A85C
:1008700003C8002920D100281ED1206B00281BD1DD
:10088000082F4ED13820205C00074AD53B26302067
:1008900046E000290ED53821615C14220A40102A56
:1008A00008D1616B6269891A226A891A081A0028BC
:1008B00000DD206207B0F0BD0294009504A830C8A6
:1008C000761E0196200029003A00FB1700F003FD78
:1008D0003032D0B23A2803DB6846007E5138121815
:1008E00000988255200029003A00FB1700F0F3FC25
:1008F00004000D0001D1002C05D00298C0680099B9
:1009000089198842DCD3029C009D082F09D1382028
:10091000205C000705D5A85D302802D0761E302067
:10092000A8553C20801BA061A919E160216B884279
:10093000AFDA081A2062208F134901402187B9E7F6
:10094000F8B50026114F04000D00009214E0C00716
:1009500007D532003B002000290000F0F1FC040024
:100960000D000098401000903000390032003B002C
:1009700000F0E6FC06000F0000980028E7D12000F8
:100980002900F4BDFFFFFF7FEFFF000000002440BF
:10099000F3B593B005AA03C802AB03C314A800784B
:1009A000202101436846017061290BD01398006B28
:1009B000002801D5062003E004D1672902D10120D7
:1009C00013990863139803C84C006415641C13D171
:1009D0000B0311D003201399886114A800786138A3
:1009E0001A2804D255497944FF31533116E054494D
:1009F0007944FF314D3111E04C006415641C13D172
:100A00000B0311D103201399886114A80078613871
:100A10001A281BD34B497944FF312B3103221398F9
:100A2000C06800F04BFCC2E110AB03C38CA6C0CE83
:100A300010A803C8394080256D03A9420BD20023BA
:100A4000019310AB30CB604069400EE03E497944E1
:100A5000FF310939E2E7080D834C2418019410A8EE
:100A600003C8834D0D4081492943139B03C3684646
:100A70000078612813D11398C06830210170811C5F
:100A8000139BD96014A90978612901D1782100E06C
:100A90005821417013984069801C1399486113983C
:100AA00030C826402F4005D1002E03D100206B46D0
:100AB000188173E168460078612800D0A8E0139897
:100AC000006B002801D5212000E0401C0090009F11
:100AD0007F1C02A803C80022002300F0F3FC02D20E
:100AE0008020000645400198001F019069460A7564
:100AF00005A8461C002F00DC5FE120002900002231
:100B000080235B0300F0F7FC00D956E169004A0D31
:100B100011001C31002A19D0002917DDB24A914278
:100B200006DB10052900802212061140014311E066
:100B30004F4A2A400805104305000DE0884B00008D
:100B4000884B00008C4B0000844B00002900802261
:100B50001206114000240D002000290000F0E4FCE2
:100B60000290FF1F002F09DD00F042FD02000B0084
:100B70002000290000F0A9FD04000D00F01D072150
:100B8000029A04E0401E13071B0F03701211002A83
:100B900001DD491EF6D5491E00D50AE1401E00229E
:100BA0000270F8E70023040005AD2D1901E0401E96
:100BB0006D1E641E2E789E42F9D00F2B04D14B1C63
:100BC0001B5D5B1C491C0B55002C04D505AA401C61
:100BD0000199091D0191431E11D4D41814A9097853
:100BE00025783035EEB23A2E02DB0E003A3EAD19D2
:100BF00025705B1E641E002BF2D514AB197013997F
:100C0000096B002900D4C6E0411E139B1963C2E0A2
:100C100002A830C86D006D080198744948437449B2
:100C200000F0CAFD019007200199401A029005DDED
:100C3000024620002900FFF783FE0AE0424200201E
:100C40006C49FFF77DFE02000B002000290000F038
:100C5000E2FD6A461278662A0CD1019A0A320AE04D
:100C6000FFFFFFFFFFFFFF7F02FCFFFF0000E03FF1
:100C7000FFFF0F800622139B1B6B9A18142A00DDBE
:100C8000142230236C46237505AB5C1C02E002A8DD
:100C900003C8049A002A3CDD02AB03C3049202A8F5
:100CA00003C800F053FC0F900646083404253000BA
:100CB0000A2100F095FD0F0030000A2100F090FDA0
:100CC00006003037601E077030000A2100F088FDF2
:100CD0000F0030000A2100F083FD0600A41E30370B
:100CE00027706D1EE3D1083404980838049000285A
:100CF000CDDD0F9800F06CFC02000B0002A803C8C9
:100D000000F0E3FC00223C4B00F01AFB02AA03C2F5
:100D1000C5E705A8401C211A05A8421C019802E05D
:100D2000491E401E521C1378302BF9D001906846A2
:100D30000078662802D10198401C06E068460078D9
:100D4000652801D1012000E00020139B1B6B1818BF
:100D5000814200DA481E00281DD4884204DA115C62
:100D6000352901DB392300E030230400511E0D1921
:100D700001E0401E6D1E641E2E789E42F9D0392B74
:100D800002D1135D5B1C1355002C04D50A00401CD6
:100D90000199491C019169460881019800B20090AF
:100DA000029B1BB214A80178139800F027F815B025
:100DB000F0BDC61D002F00DD9FE605A9481C331AB3
:100DC00005A8421C0098834200DC1800002800D5CA
:100DD00015E7984200DBE5E64B1C1B5C072B00DCAB
:100DE000E0E60F23DFE60000FF0700009775000034
:100DF000A08601000000F03F84D79741F6B583B08C
:100E000006000F001C0000F0EDF9406A007869460A
:100E10000870356B002C03DC012400BFA3A00490F4
:100E200020203843662803D10A9F3FB27F1C1AE076
:100E3000672800D085E00A9800B20321C9438842A0
:100E400000DA82E0A84200DB7FE00A9F3FB27F1C0D
:100E50003820305C000702D4AC4200DA250038B2FA
:100E60002D1A00D50025B169F06840183AB2002A61
:100E700026DC491C30220270002D03DC3820305C57
:100E8000000704D568460078F2685054491CB161E7
:100E900038B241428D4200DA6F423FB2784270620E
:100EA000ED19A54200DA2C0024B2F4612200049965
:100EB000F068B369C01800F001FA281BB062C3E003
:100EC000944218DA2200049900F0F8F9B069001988
:100ED000B0613FB2391B7162002D03DC3821715CB7
:100EE000090706D569460978F2681154F069401C73
:100EF000F061B562A8E0049900F0E0F938B2B16998
:100F00000918E41B002D03DC3822B25C120704D55B
:100F10006A461278F3685A54491CB16121B28D4275
:100F200000DA2C0022B204990918F068B369C018DD
:100F300000F0C4F924B2B0690019B061281B7062D6
:100F400082E0612F11D1702712E0AC4204DA38211F
:100F5000715C090700D425006D1E00D50025672FA0
:100F600001D1652704E0452702E0412F00D1502739
:100F7000B069411CB161049A1278F3681A5404985C
:100F8000401C0490002D03DC3820305C000718D58D
:100F9000481CB0616A461278F3685A54002D10DD7F
:100FA000641E21B28D4200DA2C0022B20499F3684B
:100FB000181800F083F924B2B0690019B061281B39
:100FC0007062F068B169401807700A9909B2002987
:100FD00004D42B214170801C049006E02D22427025
:100FE000801C049048426946088500246D460A9892
:100FF00000B205E00A2100F0DFFB2970641C6D1CC3
:1010000000B20028F6DC012C09DC202038436528DA
:1010100005D13020049908700498401C0490002CDD
:1010200028D13020049908700498401C07E0641E01
:101030006946095D30310170401C002CF7DCF16815
:10104000B2698918401AF0613820305C14210140DF
:1010500010290DD17069B1694018716A4018F169A1
:101060004018B16A4018716B884201DA081A306280
:1010700005B0F0BD0498E0E7F8B50024002B13D0CC
:1010800007000E0014001D002178B068B847B0605A
:10109000002807D0F06A401CF062641C6D1EF3D17A
:1010A000002401E00024E4432000F2BD3000F1B44C
:1010B0000168421841684808131800988068C907F9
:1010C0001ED5494640181BE01778521C0770401C7B
:1010D000761EF9D1002C13D01678521C89080D40C9
:1010E000032D01D11578521C290271184D42411966
:1010F000A41C05D00D78491C0570401C641EF9D154
:101100009A420FD01178521C032503260E4002D1BB
:101110001678F61C521C0C090F2CD9D114780F34F8
:10112000521CD5E700980C30F2BC7047613801E0E2
:10113000FFE741381A288041C00F70470100093984
:10114000052901D3202801D10120704700207047D4
:10115000010041391A2900D220307047010061395D
:101160001A2900D2203870472048704730B453689D
:10117000D418042B0BDA002909D0057825700578DE
:10118000002D04D05B1C491E641C401CF1E7536019
:1011900030BC704738B500290ED01D001400FFF791
:1011A000E5FF616820006A6B90470122D243811AF3
:1011B00002D0491E02D004E0012000E00020C0431C
:1011C00032BD0021616032BD80B5DA6B904702BD4F
:1011D00080B5064BFFF7DEFF02BD80B5034BFFF77E
:1011E000F3FF02BD0248704700000000CC01002060
:1011F00094010020C9B202788A4203D0401C002A20
:10120000F9D1002070470268531C036011707047C9
:1012100080B5002801D100BF07A006490B68002B4C
:1012200003D022220021984701E000F055FB222044
:1012300002BD000068050020636F6E7374726169FF
:101240006E742068616E646C65723A20626164201D
:101250006D65737361676500431C0178401C09422A
:10126000FBD1C01A7047FEE7C9B2521E05D30378FE
:10127000401C8B42F9D1401E70470020704780B55A
:10128000FFF772FF006C02BD70B4103A03D378C947
:10129000103A78C0FBD2530701D318C918C001D542
:1012A00008C908C0D20704D30B880380891C801C9E
:1012B000002A01D50B78037070BC70478B0701D1F1
:1012C0008307E1D0124205D00B78491C0370401C03
:1012D000521EF9D17047124224D0994228D970B5D4
:1012E00000251B4202D00C00002109E00024012649
:1012F00049186441944200D3A41A7641F8D33100CE
:10130000012601E0764109D2001864416D41A41A1A
:101310009D41F7D2A4185D41B619F5D330002200E3
:101320002B0070BD1B42D8D108B500F0DBFA08BD18
:1013300001D19042D3D202000B000021002070475F
:10134000F0B50E005E400125ED072E40B446AE0A12
:10135000DF184C18F44208D2F7420ED2640D01D0C7
:101360007F0D12D100206146F0BD05D1F74201D8B2
:101370007F0D05D10020C143F0BDFBD1640DF9D034
:101380000020C143490549088FE0E419C902DB0286
:1013900029432B43DB0A460DC00231438E4630B44D
:1013A00087B295B27D432E0CADB2140C7C43A419C8
:1013B000260C240425439CB27C43A419190C7943C0
:1013C000270CC919A4B20F043C43090C000C97B2B6
:1013D00047432E0CBE193543ADB2170C4743360CAC
:1013E000BF19A6B2BF193E043543240C3E0C361972
:1013F0009FB24743BF19BCB23E0C89191F0C47432B
:101400007F183E043443390C704680B297B247438C
:101410002E0CBE193543ADB2170C4743360CBF191D
:10142000A6B2BF193E043543240C3E0C36199FB2B8
:101430004743BF19BCB23E0C89191F0C47437F18A4
:101440003E043443390C77463F0C90B278432E0C5F
:1014500080190604ADB22E43050CA0B22D18120C53
:101460007A435019020C80B2240CA4189AB27A4321
:10147000121914042043120C89181B0C7B43C91841
:1014800030BCEF0A394203D1B61940414941641ECC
:101490006F12BF0DE41B0BDBFF19BC4211DA2405F0
:1014A00000274208AE417841614166463143F0BDB4
:1014B000641C05D1401C6141CF0201D34908F4E707
:1014C00050E75DE730B4012464054D00EC420BD8D1
:1014D0005D00EC4208D80C001C4364000443144334
:1014E00004D2994200D1904230BC7047FCD08B426C
:1014F000FAD18242F8E730B4012464054D00EC4291
:101500000BD85D00EC4208D80C001C436400044377
:10151000144304D28B4200D1824230BC7047FCD0CD
:101520009942FAD19042F8E7F4464A1805D200F001
:101530000FF801D580174008604700F009F8012135
:10154000C907884200D90800404260474A1812D2B1
:10155000400DC90208430121C9070843520D40212B
:101560000901521A521C06D452421F3201D4D040F3
:101570007047C017704700207047FEE709420BD53F
:1015800000B5002249424042914100F005F8012295
:10159000D207114300BD094218D04422120109426A
:1015A00003D4521E00184941FBD5D21E1205A44691
:1015B0004C05C90A0300C00A604064465B055B41F4
:1015C00000D3012B0023584151417047010000E036
:1015D000010042221201D21E004207D002D4521E44
:1015E0000018FCD5C10A4005120589187047000093
:1015F0000100EED54042F446FFF7EBFF0122D2078F
:1016000011436047F0B40125ED070F005F404FD450
:101610008B4200D1824205D98446100062468C4636
:1016200019006346DF184C18640D7F0D3AD0661C14
:10163000760537D0E61B352E34DCDB022B43DB0A84
:101640000C0DC9022943C912202E0DDB1700203EC4
:1016500006D01F00F741F3405F400026012A774182
:10166000C01871410DD217E01700F741F240574002
:10167000F3415A40B340F3405A4000268018594184
:101680000AD3A21C52050FD0C207012F72411700C6
:101690004008CB0718434908641C24054208AF41A1
:1016A00070416141F0BC7047641C21050020F9E7DE
:1016B0006B4010E06B40ABE7F742F3D1E943F1E751
:1016C0002442EFD100200021ECE7F0B40125ED0722
:1016D0000F005F40EED40C00871A9C4105D2C01B5E
:1016E000A141D219634169406B40AE0ADF184C1822
:1016F000F442E1D2640D7F0DE2D0E61B362ED1DC40
:10170000DB022B43DB0AA4460C0DC9022943C90A9C
:10171000012E28DC04D1D6075208DF073A435B08C4
:10172000EF0A76429041994114D039423BD1B61923
:1017300040414941761C394204D1761C0018494188
:101740003942FAD0B9436746B74208D9A41B2405E9
:101750002143A7E70042EAD13642E8D1A2E7E40AF2
:10176000E10700209EE7202E0BDD203E1F00F34006
:10177000F7415F40012A002257417E429841914142
:101780000BE01700F741F2405740F3415A40B34095
:10179000F3405A407E42904199410A0303D2641EAD
:1017A000B619404149410027641E24054208AE4154
:1017B00078416141F0BC7047CA0F00D04942031024
:1017C0005A400DD004B500D3404200F009F8009A09
:1017D000D20701D34942124200D5404204BD000065
:1017E000094214D088420FD30122030C01D1000416
:1017F0001204002300185B418B4200D35B1A524154
:10180000F8D319001000704701000020704708B598
:1018100000F06AF808BDF0B40E005E400125ED0747
:101820002E40B446AE0ADF184C18F4423BD2F742C1
:1018300041D2640D43D07F0D38D0E41BC902DB02D6
:1018400029432B43CF0ADB0A0600B61A9F4104D274
:10185000641EB6197F41B6185F416812800D2418C6
:101860000018844222DAE80C0021B6197F41B61A2A
:101870009F4102D2B6185F413F1C40414941F4D319
:10188000241C21DD2405B6197F41B61A9F4105D3DA
:101890003743C60737430026012F70416141664632
:1018A0003143F0BC7047FCD1F74205D20020C14360
:1018B00049054908F3E704D00020C143F1E77F0D53
:1018C000FAD000206146ECE72442FAD1401C614185
:1018D0000F03F6D30020E2E780B5012000F006F800
:1018E00001BDFEE77047FEE77047FEE780B500BF29
:1018F00000BF024A11001820ABBEFBE72600020021
:1019000070B50600374D2868002141748176018347
:101910008162C1620163416300F068F83249884224
:1019200002D00020C04370BD00F039FC002000F060
:1019300001FB04220021242000F021FA1E2000F0E7
:1019400047FA04000004000E29684872042000F0E1
:101950003FFA00060AD0022212212D2000F00FFAD1
:101960002868018B802252010A430283062000F07E
:101970002FFA29680860072000F02AFA29684860D1
:10198000E006C00E00D110200874087C00F028FC8E
:10199000F00708D500F04FFA2868018B8022120169
:1019A0000A43028309E00521362000F0D0F9A74A56
:1019B00002400521362000F0E6F9012000F0BAFAD5
:1019C00000220A212C2000F0DAF90021042000F086
:1019D000AEF929684861002070BD024800680068BF
:1019E00070470000200100203001CADE80B50021D0
:1019F00000205EE110B5040022780B212A2000F0BF
:101A0000BEF9626800211E2000F0C8F910BDFEB5C5
:101A10000400002000260025217801919149627977
:101A200052008F5A6178491EC9B202910199042966
:101A300001D0072900D10120694608708A48006852
:101A40004169E279002A04D18022D2030A43FF08C7
:101A500001E0864A0A404261217A01724269844962
:101A600011404161227A1304C02292021A400A43B3
:101A700042610021042000F091F93A007D492E20B6
:101A800000F081F9029800F0C5F97B480199405CAB
:101A900087007A48C25907212B2000F07FF9784847
:101AA0007549019A895C425C0B212B2000F067F993
:101AB000744869460978425C0B21282000F05FF9E0
:101AC0007148C2590C21282000F068F96F48E1796B
:101AD00089004018A1794900425A0221272000F0CC
:101AE00052F902984000009069480099425A042136
:101AF000272000F048F9E079002805D1642206216A
:101B0000272000F040F913E0A078042806D1102225
:101B10000621272000F037F9102205E020220621B7
:101B2000272000F030F928222621272000F027F96D
:101B30005848029909014018E17889004258082163
:101B4000272000F02BF96089002801D152486081DC
:101B500062892021272000F016F9504F3A680C21A5
:101B6000232000F01BF900983818828804212320D4
:101B700000F009F9A079002808D09048E179425C8A
:101B80000021212000F0FBF8032601250198010720
:101B9000090F0201F0201040084361788904C02237
:101BA00012030A40024330051043690401432079BF
:101BB0008005F823DB0403400B436079C2061A4317
:101BC00000211F2000F0EAF827480068A178627819
:101BD0000A431104E27952030A43C260C268002139
:101BE000082000F0DBF8422200210D2000F0C7F8A9
:101BF000F7BD80B5020072492E2000F0C4F801BD87
:101C000080B502000021182000F0BDF801BD10B51C
:101C10000B00110012186B4CA24205DA821E09203B
:101C200000F052F8002010BD0020C04310BD80B568
:101C30000D4B1B68DB68034388051843D20302433E
:101C40000021082000F0AAF801BD0000FFFD0000FF
:101C500080B50300080011000200112000F04EF8CA
:101C600001BD0000A855000820010020FFFFBFFFB4
:101C7000FFFFFCFF042800001C5300083C53000831
:101C8000545300085C530008245300086C530008A8
:101C9000785300087C53000841100000605300088E
:101CA00080B5030005220021172000F027F801BDB0
:101CB000172000F03CF802BD80B50300052200218A
:101CC000152000F01BF801BD7CB580246D460E0088
:101CD00003D104432C7001200CE0C02606432E7073
:101CE000802902DA6970022004E00C436C70C80994
:101CF000A8700320694600F0ABFA73BD38B56C4696
:101D00000D0002D1207001200DE040250543257013
:101D1000802902DA6170022005E080250D4365709C
:101D2000C809A0700320694600F0AAFA31BD80B549
:101D30006B46042289B280B2FFF7E0FF0321002046
:101D400000026A46525C8018491EF9D502BD80B572
:101D50006B46022289B280B2FFF7D0FF6846417815
:101D600009020078081880B202BD80B56B460122D6
:101D700089B280B2FFF7C2FF6846007802BD04B5A1
:101D80006B46012205E080B56B461A70120A5A7044
:101D9000022289B280B2FFF797FF01BD38B5002358
:101DA0006D46EA54120A5B1C042BFADB6B460422D4
:101DB00089B280B2FFF788FF23BD00006853000896
:101DC00004180000010400000320FFF7DCFF01BD40
:101DD00080B582B204212D20FFF7D5FF0322062112
:101DE0002D20FFF7CCFF002206212D20FFF7C7FF93
:101DF0000A212D20FFF79BFF02BD000080B50022C5
:101E000002212C20FFF7BBFF022202212C20FFF72A
:101E1000B6FF01BD10B504006D2225492E20FFF745
:101E2000AEFF2449002C01D0234A00E0234A2E2093
:101E3000FFF7A9FF10BD80B50E2000F07BF88022CF
:101E4000120206212D20FFF79EFF012000F039FA33
:101E5000012000F06FF801BD10B50400002104203E
:101E6000FFF765FF002C02D03149014002E08021DC
:101E7000C90201430D48006841610A46002104205F
:101E8000FFF78CFF10BD00210420FFF787FF01BD85
:101E900010B5040000211A20FFF749FF000D0005CE
:101EA0002203120B024300211A20E9E7200100203F
:101EB00006080000061800000706000007160000CC
:101EC00070B50400844DE00727D500212620FFF7D8
:101ED0002EFF0540A02252012A4300212620FFF7B1
:101EE0005DFF00213620FFF722FF84221204024307
:101EF00000213620FFF752FF8826760032000225A7
:101F00002C4200D09C4A28213620FFF747FF2C4264
:101F10000DD032002821362007E000212620FFF7CF
:101F200006FF2A00024000212620FFF737FF70BD80
:101F3000FFFFFBFF7CB505006B4602220021362027
:101F4000FFF7DCFE6C462178FC200840B3220A40F3
:101F5000617801230226002D14D0012D0ED0022D10
:101F600013D0072D14D0082D18D00B2D1AD00C2DFE
:101F70001BD00D2D1CD00E2D21D023E00020207071
:101F8000FE2013E0034323701CE00643267019E093
:101F90004820104320708020084312E02270480639
:101FA000400E0EE00E4366700CE0FD20084008E095
:101FB0002078CF21014020200843207002E02370C8
:101FC000032060706B46012200213620FFF77CFE63
:101FD000631C012201213620FFF776FE73BD80B518
:101FE0000020FFF7A7FF002204213620FFF7EDFEB7
:101FF00080B5020001210A2047E7F8B50500002658
:102000000096002402273D4209D08024802200212E
:102010000D20FFF7B4FE0120764909688876E807AD
:1020200019D50622224300210D20FFF7A8FE032127
:102030000F20FFF78CFE8121C900014011D0402202
:1020400000210D20FFF79BFE6A480068867600207D
:10205000C043009005E027433A0000210D20FFF720
:102060008EFE0098F2BD38B500210E20FFF75FFE0E
:10207000050000F02AF90400002200210E20FFF7DD
:102080008DFE402200210D20FFF779FE5A4A0021E3
:102090000F20FFF783FE00F00DF82A0000210E202C
:1020A000FFF77CFE200000F019F90020654909685F
:1020B000887631BD80B503210F20FFF756FE8021C1
:1020C00080220240400001408A4204D001220321C4
:1020D0000D20FFF754FE01BDFFC3FFFF70B50400E4
:1020E000600701D4FFF7E6FF802676003200012565
:1020F0002C4201D0C022920000210D20FFF743FEA8
:10210000254011D003210F20FFF72FFE00070BD52C
:10211000FFF7A9FFA00704D4320000210D20FFF72C
:1021200032FE0020C04370BD002070BD70B50600B7
:1021300003210420FFF719FE04002E4D30000DD0BE
:10214000320000210C20FFF71EFE28684169802222
:1021500052050A4342611022224306E02868416981
:10216000394A0A404261EF22224003210420FFF74E
:1021700006FE70BD0000000010010F0080B50200D7
:1021800024212720FFF721FE80B5E02203213620FD
:10219000FFF7F5FDF02203213620FFF738FE80B56A
:1021A000FFF71DFF002200212C20FFF7ECFD00228D
:1021B00006212C20FFF7E3FDFFF720FE002203217C
:1021C0003620FFF7DCFD012000F07BF8F022032130
:1021D0003620FFF7D4FD00201A490968887601BD32
:1021E00080B5C006C00E602202430E212B20FFF7EF
:1021F0000EFE000020010020F8FF272410B5040087
:10220000FFF7EDFEFF22520300212820FFF7C6FD55
:102210000E4A00212820FFF7C1FD0220FFF78AFEA9
:102220000D20FFF787FE042C00D204242200002199
:102230000A20FFF7B3FD102224212F20FFF79FFD76
:1022400010BD000020010020FFFFFFEF00FF5F0036
:10225000F9B581B00F00160000F037F805009024A2
:10226000E40500221021200000F0FFF86846818874
:10227000380000F04CF9B1B2029800F048F916E0CD
:10228000F9B581B00F00160000F01FF8050090248A
:10229000E40500221021200000F0E7F8684681885C
:1022A000380000F034F9B1B2029800F03AF9012296
:1022B0001021200000F0D9F8280000F00FF80020CD
:1022C000FEBD80B500F054F901BD10B500F01AF95B
:1022D000040001D000F00AF9200010BD002800D150
:1022E000704780B500F008F901BDFEE7FFB50A00B0
:1022F0000023010031E0052403E05F4CA142FAD144
:102300000324AC403443029804605C480568019E95
:10231000F44325405668F60302D52E00019D35434F
:102320000560456825405668B60302D52E00019D1C
:1023300035434560856825405668F60202D52E0073
:10234000019D35438560C5682C405568AD0202D5B6
:102350002500019C2C43C4605B1C10680400DC4019
:1023600000D181E0012401259D40039505400195A0
:1023700001980028F0D098006D46687050680228D7
:1023800001D0122811D1D80880000D18286A6E4695
:1023900077781C263E400F27B740B8431769BC46E4
:1023A00037006646BE4006432E620D6858006E46F2
:1023B0003070032037780326BE40F74302973E462D
:1023C0002E40556805406F463F78BD4035430D604F
:1023D0005568012D05D0022D03D0112D01D0122DED
:1023E00011D18E68029D3540D6686F463F78BE4059
:1023F0002E438E604D68039EB543566836092640CD
:102400009E402E434E60CE68029D354096686F46D2
:102410003F78BE402E43CE605568ED009CD5184DE8
:102420002D682543164E3560356825400295029D7E
:10243000144D9E08B600AD1902952E686D466F7852
:102440000C253D400F27AF40BE439027FF05B94202
:1024500001D1002455E70C4FB942FBD00B4CA142EF
:1024600000D04AE702244CE7FFBD002A01D0816179
:102470007047816270470000000C00480004014072
:1024800018100240080001400004004800080048FD
:1024900078B585B080252D0100951120019000248C
:1024A000029403949026F60569463000FFF71EFF5C
:1024B000002229003000FFF7D8FF00950194029414
:1024C0000320039069463000FFF710FF022000F060
:1024D0004FF806B070BD80B52148202102E080B5DC
:1024E0001F481021C16100F053F801BD1D4801686B
:1024F00001229143016070471A48016801220A4392
:102500000260704718480168C807C00F704710B5CF
:102510000A00164C002121700100114800F098F8C3
:1025200008E010B50A00114C0021217001000C4890
:1025300000F0D6F8002801D000F02CFD207800280B
:10254000FCD010BD01E0000000BF01200749087069
:10255000704780B500200549087000F01BFD01BDE3
:102560006403002004040140000401406C050020C5
:1025700031B500F011FD0400009D0020C0438542EC
:1025800000D06D1C00F008FD001BA842FAD331BD3D
:10259000F8B5040001D10120F2BD0025A5625C3030
:1025A0004078002804D15C216554200000F00FFD24
:1025B00020005C300223437021680A684026B24341
:1025C0000A60E1680091E026F600B14206D90021D8
:1025D000009AF0273F01BA4204D104E0D902009AE0
:1025E000B24200D0A5620122276B002F05D1009FC7
:1025F000B74201D9236300E022636368A6681E43E3
:102600002769374363693B43A66957023E401E432F
:10261000E3693343266A1E43A36A33432668336063
:10262000A3691B0C04263340666A1E43636B334365
:10263000E6681E433143236859602168CB69034C27
:102640001C40CC61456042700020F2BDFFF7FFFFE7
:10265000F0B50B0000240021050044352E7E012E2C
:1026600001D10220F0BD01262E76002B01D01700EB
:1026700001D101212EE06E7E012E01D0022129E040
:1026800003266E76EC6183638287C28704642C80A4
:102690006C80AC60C268114B9A4201D36D4A00E075
:1026A0006D4AEA60826880231B029A4205D1026863
:1026B00013688026F6011E43166002685368A02640
:1026C0001E435660006840220368134002D103682D
:1026D0001A4302602C760800F0BD000001070000DC
:1026E000F2B5002300210400443404258668002E3E
:1026F0000BD1466882277F00BE4206D16576130063
:10270000009A114600F049F8F2BD267E012E01D153
:102710000220F2BD01262676677E012F01D002211C
:1027200038E0009F002F01D0170001D1012131E0D6
:102730006576E361009D0564228062808363838700
:10274000C387E3600268C568444EB542556804D348
:10275000434E2E405660434A04E0802676012E43C5
:102760005660414AA260826880252D02AA4204D1A7
:10277000026815683D4E2E40166002685568602656
:102780002E435660006840220568154002D1056856
:102790002A43026023760800F2BDF6B5002200212C
:1027A00004004434257E012D01D10220F6BD01250F
:1027B0002576657E012D0BD0466882277F00BE42BC
:1027C00004D18668002E01D1042D01D002213DE004
:1027D000009D002D04D0019E002E01D01F0001D1CC
:1027E000012133E0677E042F01D005276776E2617F
:1027F00085638387C387066423806380C368174D1E
:10280000AB4204D31A4BA3601A4BE36006E01A4BA9
:10281000A3601A4BE3606388012B04D903685D68E9
:102820000F4E2E4004E003685D68802676012E433B
:102830005E6003685D68E0262E435E6000684023AA
:1028400005681D4002D105682B430360227608000D
:10285000F6BD0000072B0008E52A0008010700006C
:10286000FFEFFFFFBD2A0008972A0008FFBFFFFF08
:10287000312A0008612A000883290008E929000894
:10288000F8B50400216848688A684023412515404E
:10289000012D05D1184203D02000E16C8847F1BD1D
:1028A000950705D5050603D52000216D8847F1BDA4
:1028B000B0256D00154057D02025284254D0002661
:1028C00013400DD05D23E35C032B43D0236E04271C
:1028D0001F4327660096CB6800938B680093009B8C
:1028E000012315400AD0256E1D43256600968D688C
:1028F00000950D684027BD430D600099D10508D5AE
:10290000216E08220A432266009621688968009198
:102910000099216E002927D021684A68E025AA4342
:102920004A605D21635480071BD020684168032200
:1029300091434160A06D0D4D002803D04563A06D0B
:1029400000F0BAFB606D00280ED04563606D00F0AA
:10295000B3FBF1BD0096C8680090886800900098AD
:10296000F1BD2000FFF7F5FDF1BD00007129000861
:1029700080B5406A002146228152C187FFF7E9FDF8
:1029800001BD80B5016C02684623C35A022B13D3E4
:10299000D2680A80016C891C01644621415A891E53
:1029A00046228152815A01290FD101684A68802349
:1029B0005B0113434B6008E04B1C0364127B0A70FD
:1029C0004621415A491E462281524621415A002938
:1029D00009D101684A6860239A434A60C18F00297F
:1029E00001D100F0A3F901BD80B5816B0268C38FEE
:1029F000022B07D30988D160816B891C8163C18F49
:102A0000891E05E04B1C836309781173C18F491E31
:102A1000C187C18F00290AD101684A6880239A437F
:102A20004A604621415A002901D100F07FF901BDD9
:102A30000168C968026C1180016C891C016446211F
:102A4000415A491E46228152815A002900D07047BE
:102A500080B501684A6840239A434A60C18F15E0F7
:102A6000816B09880268D160816B891C8163C18F89
:102A7000491EC187C18F002900D0704780B5016809
:102A80004A6880239A434A604621415A002901D16D
:102A900000F04CF901BD016C4A1C02640268127B13
:102AA0000A704621415A491E46228152815A002904
:102AB00000D0704780B500F061F901BD0168C968B8
:102AC000026C1180016C891C01644621415A491E27
:102AD00046228152815A002900D0704780B500F00B
:102AE0004DF901BD816B4A1C82630978026811733C
:102AF000C18F491EC187C18F002900D0704780B5A2
:102B000000F060F901BD816B09880268D160816BBA
:102B1000891C8163C18F491EC187C18F002900D0E4
:102B2000704780B500F04EF901BDFEB51F00089B4F
:102B30000024012506000091019208933068806806
:102B4000009901400098814201D1012000E000205D
:102B50000199884234D00020C0438742EED0002F34
:102B600005D000F019FA0899401AB842E6D3306847
:102B70004168E022914341607068822149008842A7
:102B80000BD1B068E903884202D04909884204D1D8
:102B9000306801684022914301606803B16A814254
:102BA00008D131680A689D4B13400B6031680A6890
:102BB0001043086030005C30457004700320FEBD97
:102BC0000020FEBDF8B50F000699040015001E0098
:102BD0000691206881683940A94243D0C021C900CC
:102BE0008F4206D1002D04D1007B694608706846EB
:102BF00000780020C0438642EBD0002E05D000F0C4
:102C0000CBF90699401AB042E3D320684168E0222C
:102C10009143416060688221490088420CD1A068DC
:102C200080210902884202D04909884204D12068E3
:102C3000016840229143016080208001A16A8142A5
:102C400008D121680A68754B13400B6021680A6837
:102C50001043086020005C300121417000210170A8
:102C60000320F2BD0020F2BDFEB5040080273F0224
:102C7000822676006068B0420AD1A068B84202D0CD
:102C80007B09984204D1206803684025AB43036068
:102C900001920291202501980090029B0022802140
:102CA0002000FFF742FF002813D16068B04215D121
:102CB000A068B84202D0690188420FD10198009003
:102CC000029B0022C021C9002000FFF77BFF0028E3
:102CD00004D0206E054325660320FEBD0020FEBD06
:102CE000F8B504000F001600202500963B000022D6
:102CF000C0214901FFF766FF002812D100963B0072
:102D0000002280212000FFF710FF002809D1009643
:102D10003B000022C021C9002000FFF753FF00281C
:102D200003D0206E054325660320F2BD10B50400D4
:102D300000F032F902002068416820239943416085
:102D400064212000FFF7CCFF002803D0206E202153
:102D5000014321660120216E00290CD15D21615CB7
:102D6000042902D15D21605424E05D2160542000DB
:102D700000F0C6F910BD5D2160541FE010B50400DD
:102D80002068416860229143416000F005F902002B
:102D900064212000FFF768FF002803D0206E202167
:102DA0000143216601205D216054206E002800D17E
:102DB00000E003E02000FFF7C7FB10BD2000FFF795
:102DC000C8FB10BD1CB5040000F0E6F80200206846
:102DD0004168A0239943416064212000FFF780FFF0
:102DE000002803D0206E202101432166A06800281E
:102DF00006D100902068C16800918068009000981A
:102E000001205D216054206E002803D02000FFF7D0
:102E1000A0FB13BD2000FFF795FB13BDFFDFFFFFF5
:102E200070B586B000F06EF900F084F801A81421A6
:102E300000F078F98020800235490A6802430A6070
:102E40000A681040009000988020C0020A6802437F
:102E50000A600968084000900098812424019026A7
:102E6000F605012221003000FFF7FFFA019401244A
:102E7000029400250395049501A93000FFF736FA66
:102E8000019424480290039501A92348FFF72EFAE4
:102E9000224C23482060822040006060A560E02032
:102EA000C000E0602561656180208000A06118207D
:102EB000E06125626562A5620720E0622563082063
:102EC00060632000FFF764FB16486066E120400263
:102ED000A066E566256765670C20A067E56780202A
:102EE000255026008436356075602000643000F07F
:102EF00021F90D483065032070650C48F0650C48D9
:102F0000B0652000D43000F059FC00F089FCFEE7E9
:102F10001410024000001110000400486403002057
:102F2000003001400038014000300040FF0F000039
:102F3000E204000078B595B009A8302100F0F2F85D
:102F40006846102100F0EEF804A8142100F0EAF819
:102F50000A20099001240C9410200D901094022650
:102F6000119600251295A02080031390149509A8AE
:102F700000F0BEFC07200090019602950395012108
:102F8000684600F08FFE0494069504A800F076FFD2
:102F900016B070BD7047FEE701480068704700BF7B
:102FA0006405002081B001203F490A6802430A609D
:102FB0000A68104000900098802040054A6802434B
:102FC0004A60496808400090009801B0704710B509
:102FD00086B0040001A8142100F0A4F82068334949
:102FE000884227D13248810C42680A4342604268D5
:102FF0001140009100998021890202680A43026011
:103000000068014000910098E020019002200290A9
:103010000020039003210491059001A99020C00590
:10302000FFF764F900220021192000F0CCFF1920DD
:1030300000F0CDFF06B010BD10B586B0040001A8A9
:10304000142100F06FF820681A4988422AD11848E4
:103050008021C90142680A434260426811400091E0
:1030600000998021890202680A43026000680140D9
:1030700000910098C020C000019002200290002022
:103080000390032004900120059001A99020C00521
:10309000FFF72CF9002200211B2000F094FF1B20D9
:1030A00000F095FF06B010BD18100240003001403E
:1030B000141002400038014070B5002200240121A4
:1030C0002123C35C022B03D004228263012415E078
:1030D00003681D680E26B5431D6003681D688D4397
:1030E0001D60036C01259D40C36B5D602123C154AD
:1030F00020214254416B002900D08847200070BD38
:103100007047FEE780B50648016810220A43026056
:10311000002000F07FFFFFF745FF002002BD000008
:1031200000200240002200BF094202D0491E425442
:10313000FCD1704738B5040014D025006835687894
:10314000002803D128702000FFF776FF2420687044
:1031500020680168012291430160200000F01BF902
:10316000012801D1012032BD606A002802D0200070
:1031700000F09EF9206841683A4A0A40426020689F
:1031800081682A2291438160FFE72068016801225B
:103190000A430260200000F0F1F932BDFEB50700DD
:1031A0001C003D005035687E20284CD1009100293C
:1031B0000CD016000AD0B86880214901884207D196
:1031C0003869002804D10098C00701D50120FEBD50
:1031D000287E012837D0012028760020E8612120B0
:1031E0006876FFF7D9FE2E806E8021003E00009C9D
:1031F0000191070005E02088C005C00D31680885F1
:10320000A41C6888002820D06888401E6880019827
:1032100000903B0000228021300000F0E3F90028FC
:103220001DD1B06880214901884202D1306900284F
:10323000E1D0207831680885641CE2E720206876B8
:1032400000202876FEBD0220FEBD300001993B0023
:1032500000910022402100F0C5F90028EED00320A3
:10326000FEBD0000FFB7FFFF70B504002368D869FA
:10327000196805072D0F07D1820605D58A0603D5E3
:10328000200000F05EFA70BD9A68002D63D0012521
:103290002A4203D1902676000E405CD0C60705D5A1
:1032A000CE0503D51D62E36E1D43E56604230225AA
:1032B000860706D5D60704D526683562E66E1E4316
:1032C000E666460706D5D60704D526683362E36E60
:1032D0001D43E5660825030708D58B0601D4D207F0
:1032E00004D522681562E26E2A43E266E26E002A85
:1032F00050D0800604D5880602D5200000F021FABF
:103300004026E06E054003D12068806830401CD024
:10331000200000F09FF9206881680E4011D081687C
:10332000402291438160606E00280AD05F4941636A
:10333000606EFFF7C1FE00282CD0606E416B88479D
:1033400070BD200000F078FE70BD200000F074FE1B
:103350000020E06670BDC5020DD552020BD580205D
:103360004003186220006930202101704170200064
:1033700000F064FE70BD020605D50A0603D52000E4
:1033800000F09EF970BD400604D5480602D5200025
:1033900000F0CAF970BDF8B5040010220020002525
:1033A000266831688E4F0F40A168394327690F4363
:1033B00061693943E7690F4337607768A34939404A
:1033C000E7680F437760B768A1493940A7690F43A1
:1033D000216A3943B160A6498E420FD1A5490968D7
:1033E0008907890F0DD0022906D003D3032909D1FB
:1033F000022207E0042205E0082203E09E498E42F3
:1034000000D1002280231B02E7699F4225D1002AB8
:1034100006D0022A07D0042A09D0082A0DD013E0CA
:1034200000F0F8FC05E061684808944A08E000F004
:10343000D1FC616840004A0802E0616848085A000F
:103440008018FEF7CDF900E001258D490140000408
:10345000400C4007400F084318E0002A06D0022A1B
:1034600007D0042A0AD0082A13D01AE000F0D2FCB0
:1034700006E061684808834A80180DE000F0AAFC65
:1034800061684A088018FEF7ABF980B22168C8600D
:1034900008E061684808C018FEF7A2F980B2F06041
:1034A00000E001252800F2BD00000000AD36000854
:1034B0002421415CC90706D501684A68724B134054
:1034C000826A1A434A602421415C890706D5016853
:1034D0004A686E4B1340C26A1A434A602421415C19
:1034E000490706D501684A68694B1340026B1A43C5
:1034F0004A602421415C090706D501684A68654B8A
:103500001340426B1A434A602421415CC90606D528
:1035100001688A68604B1340826B1A438A602421D9
:10352000415C890606D501688A68134B1340C26B5B
:103530001A438A602421415C490611D501684A6812
:10354000564B1340026C1A434A60026C80235B03A3
:103550009A4205D14A68524B1340426C1A434A6062
:103560002421415C090606D501684A684D4B134089
:10357000806C184348607047FFDFFFFFF8B5040018
:10358000002568304560FFF707FD070038482168CF
:1035900081421DD1444E0068000709D500963B00CA
:1035A000002280218903200000F01CF800280DD1A2
:1035B0002068006840070BD500963B000022802160
:1035C000C903200000F00EF8002801D00320F2BD4E
:1035D000210068312020487088700D700020F2BDF5
:1035E000F369FFFFFEB5089E002405000F00684642
:1035F000027001932868C0693840B84201D10120A7
:1036000000E000206946097888421DD10020C043AF
:103610008642EFD0002E05D0FFF7BEFC0199401A7C
:103620008642E7D228680168624A0A400260286838
:103630008168012291438160280068302021417017
:10364000817004700320FEBD0020FEBDFFCFFFFF90
:10365000FFF4FFFF01680A68574B13400B600168D5
:103660008A6801239A438A6020216A228154704724
:103670000038014030100240004400400024F400B3
:10368000F0FF000000127A00FFFFFDFFFFFFFEFFCA
:10369000FFFFFBFFFF7FFFFFFFEFFFFFFFFFEFFFDE
:1036A000FFFF9FFFFFFFF7FFFFFFFF0180B5406AAD
:1036B0000100523100220A810A8000F0BDFC01BDE8
:1036C00001005231CA7D212A2CD15222825A002A6D
:1036D0000AD101680A6880239A430A600068016879
:1036E00040220A4302601BE0826880235B019A4209
:1036F0000CD10269002A09D1C26C1288D205D20D00
:1037000003681A85C26C921CC26405E0C26C531C2B
:10371000C364127803681A855222805A401E0880BA
:10372000002070470220704780B501680A68402376
:103730009A430A6020216922815400F080FC002015
:1037400002BD38B501005A314A8803680C7C222C2E
:103750002AD19B8C846880256D01AC4209D1046913
:10376000002C06D11A40436D1A80426D921C4265AE
:1037700004E0446D651C45651A4022705A22825A45
:10378000521E0A8012040DD1026813680A4C1C40B4
:103790001460026893680124A343936020220A7492
:1037A00000F04EFC002032BD986908210143996168
:1037B000022032BD5FFEFFFFDFFEFFFF38B50500D0
:1037C00001D1012032BD286812490160124901600F
:1037D00069684160A9688160FFF7DEFB0400286822
:1037E000C16800290AD0FFF7D7FB001B2828F6D3B1
:1037F000032032BD09490160002032BDE968026939
:103800008A42F7D00161F7E70449006801600020AF
:1038100070470000CCCC000055550000AAAA00005B
:1038200010B500F00FFCFEF733FEFEF7DFF82A4973
:103830008842F8D100F010F800F06DFC274C00F041
:10384000C1FC00F02DF82000FFF7DEFF0028F6D0C5
:10385000FFF7A0FBF3E7000021480168002900D131
:10386000704710B50079012806D018D3032809D075
:1038700005D3042811D010BD00F020FE10BD00F0CB
:10388000D9FF10BD17A42000FDF7E6FC81B220008F
:1038900000F076FC01F0BAF910BD01F015FA10BD88
:1038A0000F480168002900D1704780B500790128D0
:1038B00006D010D3032809D005D3042809D001BDB0
:1038C00000F036FE01BD00F0EBFF01BD01F0CDF9C7
:1038D00001BD01F01BFA01BD3001CADE3804002031
:1038E0004005002054414720424C494E4B0D0A00F0
:1038F000F1B582B0B14C0078C00700D4FEE080255D
:10390000AD0260680C210140042907D060680C21D9
:10391000014008290BD16068C00308D52068054024
:1039200038D002984068002826D10120FEBD0298B8
:103930004168012902D1206869080BE0A048A14A2A
:1039400000290AD0052908D12068690001432160B7
:103950002068D1430143216005E021680A402260CC
:103960002168084020600298406800280DD0FFF7C9
:1039700013FB06002068284000D0BFE0FFF70CFBD7
:10398000801B6528F6D30320FEBDFFF705FB06006C
:103990002068284000D1B1E0FFF7FEFA801B6528BF
:1039A000F6D3F0E7FFF7F8FA801B022800D8D6E03C
:1039B000E9E70298C068002820680FD00121014380
:1039C0002160FFF7E9FA06002068800700D5AEE025
:1039D000FFF7E2FA801B0228F6D9D4E701218843D9
:1039E0002060FFF7D9FA06002068800700D4A6E01F
:1039F000FFF7D2FA801B0228F6D9C4E701218843D9
:103A00006062FFF7C9FA0600606A800700D4AAE086
:103A1000FFF7C2FA801B0228F6D9B4E70420C0439E
:103A20000122D24300290AD0052908D1206A0421A5
:103A300001432162206A01210143216205E0216ADC
:103A40000A402262216A08402062954F02988068ED
:103A500000280CD0FFF7A0FA0600206A800700D5E6
:103A6000B9E0FFF799FA801BB842F6D38BE7FFF76E
:103A700093FA0600206A800700D4ACE0FFF78CFAC6
:103A8000801BB842F6D37EE7FFF786FA801B022838
:103A900000D8BDE077E7FFF77FFA801B022800D847
:103AA000D6E070E70421C9438842606B03D104214A
:103AB00088436063B0E0042101436163606B0121CE
:103AC00088436063FFF768FA0600606B800700D4E4
:103AD000A9E0FFF761FA801B0228F6D953E70140FD
:103AE0002160FFF759FA06002068800100D4D4E075
:103AF000FFF752FA801B0228F6D944E70C250298FA
:103B0000007880071BD56068284008D0606828408E
:103B1000082800D04DE76068C00300D549E7206859
:103B2000800704D50298C068012800D0FDE620680F
:103B3000F821884302990969C9000143216002986C
:103B4000007800070FD50298C0690028606A00D18C
:103B500054E7012101436162FFF71EFA0600606A23
:103B6000800700D41EE70298007840073AD500206D
:103B7000009080204005E169014008D1E1690143DE
:103B8000E161E169084000900098012000909048B0
:103B90000068C00518D48E480068A10D01438C4808
:103BA0000160FFF7F9F9060089480068C0050BD4E9
:103BB000FFF7F2F9801B6528F6D3E4E60010024017
:103BC000FFFFFBFFFFFFFEFF02988168012900D085
:103BD00024E7206A30E70098002803D0E069924982
:103BE0000140E16102980078C0061CD50298406946
:103BF000F827FF43012800D054E7606B04210143FC
:103C00006163606B012101436163FFF7C5F9060041
:103C1000606B800700D437E7606B074002988069CB
:103C2000C000384360630298006A002835D061689C
:103C30000D40082D00D178E67C490228206800D08C
:103C40004DE701402160FFF7A7F906008025AD048C
:103C50002068284000D01EE7E06A0F2188430299BF
:103C6000C96A0143E1626068714901400298806A53
:103C700008430299496A0143616020686908014369
:103C80002160FFF789F906002068284005D1FFF779
:103C900083F9801B0228F7D975E60020FEBD0000DD
:103CA00089130000F3B581B00127FF430124614966
:103CB00009682140029A91420AD25E490A683A4054
:103CC000029B13430B6009682140029A914272D112
:103CD0000090594D022000990968014006D069689A
:103CE000F0229143009A92680A436A600099096839
:103CF000214050D000994968012902D128688003E9
:103D000003E0022903D12868800103D453E02A6824
:103D1000104050D068680322904301436960FFF768
:103D20003BF906000098406801280CD168680C2116
:103D3000014004292FD0FFF72FF9801B3F4988420B
:103D4000F4D30320FEBD022837D168680C2101405E
:103D5000082920D0FFF720F9801B38498842F4D386
:103D6000EFE700980078400706D5686834490140BD
:103D70000098C0680843686000F02CF831496A6810
:103D80001206120F895CC8402F490860002000F01D
:103D900041F90020FEBD2748029902682240914265
:103DA000DFD201680F400299394301600068044086
:103DB00002988442D5D00120FEBD68680C210140E4
:103DC000E9D0FFF7E9F8801B1C498842F5D3B8E732
:103DD000007000401D4B19681D480C220A40082A3B
:103DE00000D0704730B50F221CA48D0C1540645DC7
:103DF0009B6AC90307D500BF1CA11A40895CFDF767
:103E0000EFFC604330BD20001249484330BD0E48EE
:103E1000006870470C4800680F490C4A1268520548
:103E2000520F895CC8407047FFFFFFEFFFFFFFFEA6
:103E3000FFFFC2FF00200240001002408913000073
:103E4000FFF8FFFFFC5300085C0100200410024053
:103E500000127A0000093D00F05600080203040534
:103E6000060708090A0B0C0D0E0F101001020304BF
:103E700005060708090A0B0C0D0E0F10F8B5070010
:103E80003C4C3868C00357D5002000908020400586
:103E90002168014008D12168014321602168084060
:103EA0000090009801200090334E3068C00517D470
:103EB0003068A10D01433160FFF76EF805003068EE
:103EC000C0050DD4FFF768F8401B6528F7D3032021
:103ED000F2BDFFF761F8401B284988421DD3F6E781
:103EE000C020800061680140254A1600002917D0D3
:103EF0007A681040814213D0606830406168802247
:103F000052020A43626061681E4A0A406260606051
:103F1000C00705D5FFF740F8050060688007D8D5D1
:103F2000606806407868304360600098002803D0DD
:103F300020681549014021603878C00705D56069BF
:103F400003218843B968014361613878800605D54B
:103F5000606910218843F968014361613868400550
:103F600005D56069402188433969014361610020BA
:103F7000F2BD00001C1002400070004089130000D8
:103F8000FFFCFFFFFFFFFEFFFFFFFFEF10B5C200CA
:103F900018231340FF249C40E2438907090E9940EF
:103FA000030007D5174B0007000F08388008800072
:103FB000181803E014489B089B00C01803681A40B7
:103FC0001143016010BD80B5FFF7E0FF01BD012185
:103FD000C006C00E81400D480160704710B5401EFC
:103FE00080214904884201D3012010BD084C606043
:103FF00003210020C043FFF7C9FF0020A060072174
:10400000216010BD1CED00E000E400E000E100E0F4
:1040100010E000E010B50400FFF7F9FEFA21890076
:10402000FDF7DEFBFFF7DAFF002221000020C0438E
:10403000FFF7C9FF002010BD7047FEE770477047CB
:104040007047FEE780B500F001F801BD10B5144CD3
:1040500006222100134800F07AFE0621200000F01D
:1040600023F8002806D0182220A12000FDF70CF923
:1040700000F001F810BD38B500F0B5FE094D28007C
:1040800000F045FE064C0621200000F019F806223B
:104090002100280000F048FE00F0ACFE31BD000019
:1040A0004005002000FC000810B50200002000239D
:1040B00003E09C00145900195B1C8B42F9D310BD1E
:1040C00000230022002800D1704730B5012903D811
:1040D00030BD246812195B1C9C0004194D1EAB42B4
:1040E000F7D3D043401C206030BD0000000000002A
:1040F00000000000010000000100000001000000BD
:104100000000000001B5A04B01226946A748FFF757
:1041100045F8009802BD80B5A448006801682022D7
:104120000A43026000F012F901BD000010B500BFA3
:1041300004A42000FDF790F881B2200000F020F8E0
:1041400010BD0000244552524F520D0A00000000DD
:10415000FEB504000D001F00954E40213000FEF713
:10416000E1FF009401953A0099A1300000F0AAFE09
:104170003000FDF771F881B2300000F001F8F7BDB2
:1041800080B50A00FA239B0001008848FFF706F873
:10419000002801D0FEF7FEFE01BD84480068808C37
:1041A0008449087084488288FF2A0ADC09780288DA
:1041B000821891710188491CC9B201808188491C0B
:1041C0008180704780B500F011F800F049F801BD1A
:1041D000002079498A88002A07D04B88C81880793E
:1041E0005B1CDBB24B80521E8A807047F8B50024FE
:1041F000724D687800280ED0FEF7CEFEA968401AEE
:10420000652808D36C7006E0FEF7C6FEA8606878E3
:10421000401C6870AC806848808800281ED0AF8839
:10422000674E68780028EFD0022810D0F3D2FFF74D
:10423000CFFF0D2802D102206870ECE7402FE1DAB1
:1042400000F060FEA9887054491CA980E3E7FFF7DD
:10425000BFFF0A28D6D1F4550120A870F1BD000097
:10426000F8B5564D2878A978002902D1002803D046
:10427000F1BD0021A9706970514F524C216800298D
:1042800054D1514E002805D002282AD009D3032842
:1042900038D0F1BD300000F03FFE2878401C287077
:1042A000F1BDA888012819D1387802214D2809D1FB
:1042B00001202071297000BF49A000F02DFE00BF31
:1042C0004AA030E0532809D121710320287000BF93
:1042D0004DA000F021FE00BF4EA024E030002830A9
:1042E00021E0380000F0D2FE050008D0FF2D06D8EE
:1042F000290000BF4EA000F00FFE25610EE0300047
:104300005C3010E0380000F0C1FE050009D0FF2D40
:1043100007D8290046A000F0FFFDE56000F036F860
:10432000F1BD3000883000F0F7FDF1BD61A5280037
:10433000FCF792FF02002900380000F0AFFE0028D1
:1043400003D118212000FEF7EDFEF1BD10B51D4C84
:104350002068002813D02079012805D136A000F06C
:10436000DBFD21693AA006E0022806D13DA000F05D
:10437000D3FDE16841A000F0CFFD144801E000BF8B
:1043800042A000F0C9FD10BDFFFF000080B5012074
:104390000C49086000200949087000BF41A000F0E6
:1043A000BBFDFFF768FEFFF757FA01BDC803002009
:1043B000DC0400206D0500205C0200205805002070
:1043C000980400204005002068520008DC550008D1
:1043D000244449535425642C25322E32660D0A009C
:1043E000D6F7C4A3CABD0D0A00000000C7EBCAE49B
:1043F000C8EBB4D3C4A3BFE9CAFDC1BF28312D3275
:10440000353529A3BA000000B4D3C4A3CABD0D0A30
:1044100000000000C7EBCAE4C8EBB4D3C4A3BFE9F3
:10442000B5D8D6B728312D32353529A3BA000000CA
:1044300025640D0A00000000C4A3BFE9B9A4D7F7A2
:10444000C4A3CABDA3BAD6F7C4A3CABD0D0A00004F
:10445000B4D3C4A3BFE9CAFDC1BFA3BA25640D0A82
:1044600000000000C4A3BFE9B9A4D7F7C4A3CABD24
:10447000A3BAB4D3C4A3CABD0D0A0000C4A3BFE944
:10448000B5D8D6B7A3BA25640D0A0000C4A3BFE906
:10449000B2CECAFDC9D0CEB4C9E8D6C3A3A10D0A15
:1044A00000000000C9E8D6C3B3C9B9A6A3A10D0A8C
:1044B00000000000434F4E46494700001CB5FDF781
:1044C0006EFEFEF708F80120FDF71AFA0021C94335
:1044D000884201D1FEF75EFDFEF701F8BF4C2000D7
:1044E000FDF795FA0020FDF7B7FC0120FDF7E8FC89
:1044F000BB4821780C225143401801786A4611705C
:1045000061788900405801906846FDF773FAB54C10
:104510002000FDF76EFB2000FDF772FBB248FDF7AF
:10452000B7FCBA48FDF702FE1020FDF727FE13BDC9
:10453000F8B586B0AD4D28004E30C07AA875280079
:104540004E30807AA876B448806828770022290007
:1045500014310C20FDF75BFB012200210C20FDF73C
:1045600066FB0220FDF749FD00210F20FDF7DFFB70
:104570009F4900910140F7D029004E31C97A491C6A
:104580002A004E32D172400400D410E18122D201BF
:1045900000210F20FDF702FC00211020FDF7C7FBD2
:1045A0004106490E152903D200222800FDF750FBD1
:1045B00028004E30807A297A814200D0F3E0002131
:1045C000A970954989682622A954282168540A228D
:1045D00029002031280000F061FD002870D1002161
:1045E00004AA03C201A8FDF75BFB042604A803C8C4
:1045F0000902020E1143000201AA925D024310005B
:10460000761EF5D5286669660026002701A8FDF705
:1046100053FB042201AB3F02300E07433602985C85
:10462000304339000600521EF5D5724C2200083284
:10463000C0C2714E002736184F41360A380606436D
:104640003000FDF7D5FC01208643370E3602654861
:104650000021801979412200103203C22A6E6B6E4C
:1046600028003A3000F0DAF8200008300CC82800A2
:104670003E3000F0D3F8200010300CC82800423043
:1046800000F0CCF82E004E36F07A32216854B07A21
:104690003621685460488068382168540022290017
:1046A00030311820FDF7B3FA012200211820FDF760
:1046B000BEFA0020FDF73AFD0320FDF79EFC00281E
:1046C0007CD100210F20FDF732FB00990140F8D08A
:1046D0008024E401204056D000211020FDF727FB64
:1046E0004106490E152903D200222800FDF7B0FA31
:1046F000220000210F20FDF751FB287AB17A884271
:104700003DD10024AC70444880683070B1700A22FA
:1047100029004831280000F0C1FC00283AD12F00C0
:10472000603700213A00183203C22819807AE1006C
:104730008840FCF75DFF02000B003800183003C80A
:10474000FCF760FF3A00183203C2641C042CECDB57
:104750002AA20CCAFCF7F4FD2AA20CCAFCF7F0FD51
:1047600000220023FCF7AEFE02D2FFF7DFFC11E0CF
:10477000B37A294A9268D2B2FFF7EAFC0AE0142021
:10478000FDF7F6FE06E0224A00210F20FDF706FBAA
:10479000FDF7FAFCF07A401CF072FDF764FC1B4850
:1047A000FDF7C4FC0AE03220FDF7E2FE06E0184AFD
:1047B00000210F20FDF7F2FAFDF7E6FC1549887A93
:1047C000401C8872144A1269C0B2824204D201208D
:1047D00088720A20FDF7CCFE07B0F0BD7C010020F6
:1047E0000C54000834400000520300000000002078
:1047F00000D02724600000200000AC0DFA48CE3B1A
:104800001835B13D0000001319DDB141342100001D
:10481000009027244E0000204005002010B5002104
:104820004254120A1C0622431B0A491C0429F7DBC6
:1048300010BDFEE71CB5FDF7B2FCFDF74CFE0120F4
:10484000FDF75EF80021C943884201D1FEF7A2FBC3
:10485000FDF745FE114C2000FDF7D9F80020FDF7CB
:10486000FBFA0120FDF72CFBCC4821780C225143A8
:10487000401801786A4611706178890040580190AB
:104880006846FDF7B7F8CF4C2000FDF7B2F92000DD
:10489000FDF7B6F91020FDF771FC13BD880100206B
:1048A000F8B58CB00020FDF741FC0020FDF716FCA8
:1048B000BB4E00210F20FDF73AFA3042F9D0802597
:1048C000ED01284000D194E02A0000210F20FDF7DF
:1048D00065FA00211020FDF72AFA8105890DB14CF7
:1048E000B148814204D2002220002030FDF7B0F907
:1048F00027002237002038702820205C21004A3110
:104900008874002028216054AA48C0683E21605461
:104910000A22210038312000203000F0BFFB00289F
:104920006ED100F055F920666166A04A0023121886
:104930004B41120A180602431000FDF759FBAF2045
:104940008000FDF7A5FA96204001FDF7EFFB20005F
:104950004A30C07CA07420004A30807CA075954805
:10496000C06820760022210010310F20FDF74FF99A
:10497000012200210F20FDF75AF90320FDF73DFB2E
:104980000021C94388423DD13AE0002022189672A6
:10499000360A39060E433F0A401C0428F6DB844ED3
:1049A000B07CA071834DE8682072002221001020A5
:1049B000FDF72DF9002200211020FDF738F9002025
:1049C000FDF71BFB00210F20FDF7B1F90006F9D51B
:1049D000802200210F20FDF7E1F9FDF744FBEB6891
:1049E000DBB2B27C20006030183003C8FFF7B0FBA8
:1049F00006E0714A00210F20FDF7D0F9FDF7C4FB56
:104A00000DB0F0BD00210F20FDF791F93042F9D033
:104A100021004A31C97C491C22004A32D174054028
:104A2000E7D08122D20100210F20FDF7B7F9002144
:104A30001020FDF77CF94106490E192904D2002205
:104A400020002030FDF704F9002038702820205C79
:104A500021004A31897C884202D1002028216054FB
:104A60005448C0684A2160540A2221004431200081
:104A7000203000F013FB0028C2D100260027684632
:104A8000FDF70EF904226B463F02300E0743300259
:104A90009E5C0643521EF7D5200060300830C0C02F
:104AA00000F096F822006032103203C204A9200000
:104AB0002A3000F09EF802A920002E3000F099F86C
:104AC00003A92000323000F094F820006030083054
:104AD000C0C802980499401AFCF77AFD0AAA03C2DA
:104AE00020006030103003C8801BFCF771FD08AA5D
:104AF00003C203980299401AFCF76AFD06AA03C292
:104B0000206E301AFCF764FD06000F000AA803C8E7
:104B100008AA0CCAFCF714FC0090019106A803C86F
:104B200032003B00FCF70CFC02000B0000980199DE
:104B3000FCF7CBFD009001910AA80CC808A803C897
:104B4000FCF760FD02000B0006A803C8FCF75AFD45
:104B500032003B00FCF756FD02000B000098019963
:104B6000FCF759FE00F0AAFA06000F00FCF706FD5C
:104B700012A20CCAFCF7E4FB13A20CCAFCF7E0FB80
:104B800022006032183203C200220023FCF79AFC94
:104B900000D3FAE6FFF7CAFA32E700006C540008C7
:104BA00000D0272480000020010400000000AC0D8C
:104BB000CA0000204005002000902724FA48CE3B80
:104BC0001835B13D344000000000001319DDB1413B
:104BD0001CB56846FDF770F8042200200021090288
:104BE000030E194304026846805C2043521EF6D52A
:104BF0001CBD30B500220A600B68845CD500AC4057
:104C00001B190B60521C042AF6DB30BD1FB5FDF7E3
:104C1000C6FAFDF760FC0020FCF772FE0021C943D4
:104C2000884201D1FEF7B6F9FDF759FC234C20006C
:104C30001030FCF7ECFE0120FDF742F902A800BF9E
:104C40001FA10CC90CC0FCF7C8FE01210091009007
:104C50000098019001A802A902680A600822A01C1D
:104C6000FCF72CFBC52020701FBD10B5FEF794F992
:104C7000124CE168401AFA21890088421DD30022B3
:104C800021000C20FCF7C3FF002200210C20FCF7C0
:104C9000CEFF0020FDF7B1F900210F20FDF747F806
:104CA0000006F9D5802200210F20FDF777F8607803
:104CB000401C6070FEF770F9E06010BD60010020DC
:104CC000000000000001CADE10B50E4C2000FCF709
:104CD0009EFE20000C30FCF78DFE0120FDF7F0F861
:104CE0000948FDF78BFA0022210014310C20FCF753
:104CF0008EFF002200210C20FCF799FF0020FDF719
:104D00007CF910BD0001002080E701007047F8B574
:104D1000002100910191029001200390694601A8B1
:104D200000F00CFA05B000BDF8B5002405000F0036
:104D3000160008E080003A5800232900022000F005
:104D400011F82D1D641CA0B2B042F3D3F1BD30B5F3
:104D5000002304E004689D004C51001D5B1C93423D
:104D6000F8D330BDF1B582B00F0014001D004F48DC
:104D7000007E012801D10220FEBD01264B490E769E
:104D80003C4800F04FF8010029D10299012901D1D6
:104D9000012204E0022901D1022200E004223B00AA
:104DA00026002F00009315000024AC4217DA3000D3
:104DB0003900220100F036FA81B2009862008018B2
:104DC00000F025F82B4800F02DF839490968012238
:104DD0009143374A1160010001D1641CE5E70021CD
:104DE000324A1176FEBD3448C168090600D508E094
:104DF000012070472E48016880220A43026000208B
:104E000070472E4901602E4901600020704710B59F
:104E10000022264BDA61264A136801241C431460E1
:104E2000018010BD70B50500FEF7B6F80600214CF4
:104E30002068C0070ED50020C0438542F8D0002D61
:104E400004D0FEF7A9F8801B8542F1D2032070BD83
:104E5000002070BD20202168014000D02060206823
:104E6000C00602D420684007F2D500F005F8012002
:104E700070BD000050C3000030B500220B48102365
:104E80000C490C681C4004D0C26902241443C4615C
:104E9000102204230C681C4006D0C4690125254358
:104EA000C5611000042202430A6030BD20050020C5
:104EB000102002400C2002400420024023016745DC
:104EC000AB89EFCD0CB418B583B004000A0006A876
:104ED000029001940020009002AB01A90848784498
:104EE0001E30FBF7EBF80021019A1170002801D465
:104EF0000198001B04B0019910BC03B0084700BF23
:104F000007C3FFFF10B50400FCF72EF901002000D5
:104F1000C96A884710BDFEE70EB4C0B5020003A8F9
:104F200001900020009001AB0121044878440C302E
:104F3000FBF7C4F8029906B0084700BF63070000FA
:104F4000FCB587B00C001500002B01D000211960C2
:104F50000390064600E0761C307800F072F90028D5
:104F6000F9D1300001782D2901D02B2903D16A46CF
:104F70001170401C02E02B216A4611700194002D33
:104F800003D4012D01D0252D04DB002C54D003982F
:104F9000206051E0002D0ADD102D16D10178302956
:104FA00013D1417820220A43782A0ED10AE00178F1
:104FB000302901D00A2508E0417820220A43782AC6
:104FC00002D11025801C00E00825069000E0401C5E
:104FD00001783029FBD0002405902B4A7A44A8326E
:104FE00028326B465A700295049F05000494264EA1
:104FF0007E44943608E0049469464978471AFFB223
:1050000002984443E4196D1C287800F023F9029AB1
:10501000010030002830FCF727F90028EBD1029975
:1050200038002F00049D069ABA4207D10198002843
:1050300002D0039801990860002022E0059ABA1A6C
:10504000735CD21A002A11D405DC201A03D3FCF7B2
:10505000C7FBA8420AD000BF00BF0898002802D0B2
:105060000120089908600024E44305E068460078C0
:105070002D2801D1604204000198002800D007606B
:10508000200009B0F0BD00BF4404000080B5FFE778
:1050900000230A220021FFF753FF02BDA446521E3F
:1050A00008D303780C78401C491CA342F7D0181B86
:1050B00064467047002064467047FEE7F44649188E
:1050C00006D200F013F8094201D5C817410860471D
:1050D00000F00CF8FBD00022494240429141F6D446
:1050E00000200121C9076047491824D24A0D4023F6
:1050F0001B01D21A0123DB071E3A09DC5242202A87
:1051000019DA8902400D084318430021D040704746
:10511000524220320CD489021943430D1943C00274
:10512000D0400B00D341D14048405840094270471D
:10513000D817D9177047002000217047FEB50E0020
:10514000012101242A4D2A7E012A01D10220FEBD1F
:1051500000902976274F00980068012810D1264E2C
:105160003000FFF75FFE00282FD100F032F830004A
:10517000FFF758FE0400386804218843386024E0B3
:105180001D48FFF74FFE00281FD101960020C043A5
:1051900030600098466801E0480236180098806840
:1051A000800200994968401886420ED2300000F013
:1051B00025F81148FFF736FE0400386802218843BD
:1051C00038602000E8D00198066000202876200092
:1051D000FEBD00200649C8610648016804220A4352
:1051E0000260016840220A4302607047000000002C
:1051F000200500201020024050C300000021074A73
:10520000D16107490A68022313430B6048600868AC
:10521000402202430A607047000000002005002081
:1052200010200240D2B2203A03D30800D04000211F
:1052300070472032D141D04048409140D140484051
:10524000704710B50400FBF78FFF01002000096ACA
:10525000884710BD10B50400FBF786FF0100200051
:10526000896A884710BDFEE7C7EBCAE4C8EBC4A350
:10527000BFE9B9A4D7F7C4A3CABD284D3AD6F7C42D
:10528000A3CABD20533AB4D3C4A3CABD29A3BA004C
:105290000D0ACAE4C8EBB4EDCEF3A3ACC7EBD4D986
:1052A000B4CECAE4C8EBB9A4D7F7C4A3CABD284D8D
:1052B0003AD6F7C4A3CABD20533AB4D3C4A3CABDD7
:1052C00029A3BA000D0ACAE4C8EBB4EDCEF3A3AC2F
:1052D000C7EBD4D9B4CECAE4C8EBB4D3C4A3BFE9F6
:1052E000CAFDC1BF28312D32353529A3BA000000CF
:1052F0000D0ACAE4C8EBB4EDCEF3A3ACC7EBD4D926
:10530000B4CECAE4C8EBB4D3C4A3BFE9B5D8D6B70A
:1053100028312D32353529A3BA00000000000102E2
:1053200003040005405C0000A05C0400C06C0800A1
:10533000805C0400E03F1E00E07D1E0007040009C1
:105340000805400809104008080540081D04000829
:105350001D0400081E265626BEBE0000D8BC000054
:1053600007A9022570889B88401008000A001600D3
:10537000010006000100020087008D002D001A3197
:1053800052001A339A001A351D011A376B003B314F
:10539000BE003B335E013B3596023B371148016846
:1053A00001220A43026041680F4A0A4042600168D4
:1053B0000E4A0A40026001680D4A0A4002604168D4
:1053C0000C4A0A404260C16A0F229143C162016BDC
:1053D000094A0A400263416B012291434163002163
:1053E00081607047001002400CB8FFF8FFFFF6FE26
:1053F000FFFFFBFFFFFFC0FFACFEFFFF0000000050
:105400000000000001020304060708090000000074
:105410000000000000000000C900000075553515AF
:1054200067472707C20000007555351567472707EE
:10543000C50000006F4F2F0F8B6B4B2B95000000AA
:105440005F3F1F1F9A7A5A3AC00000004828080E92
:1054500085654525000000000000000000000000F8
:105460009300000092725232D1B1715100000000DD
:105470000000000000000000C9000000755535154F
:1054800067472707C200000075553515674727078E
:10549000C50000006F4F2F0F8B6B4B2B950000004A
:1054A0005F3F1F1F9A7A5A3AC00000004828080E32
:1054B0008565452500000000000000000000000098
:1054C0009300000092725232D1B171510000211547
:1054D000110E0D0C0B0B0A0A090909090908080825
:1054E0000808080807070707070707070707070748
:1054F00007000000303132333435363738396162D5
:10550000636465666768696A6B6C6D6E6F707172F3
:10551000737475767778797A000000007047FEE73B
:105520007047704780B500F019F801BD80B5094893
:10553000FDF7A6F901BD10B5074C2068006880068C
:1055400004D5FEF72AFE0420216808622000FDF73A
:105550008BFE10BD64030020C803002002480168D0
:10556000491C0160704700BF6405002070B401232E
:10557000002413E00168001D194202D04D466D1E43
:1055800049190C60091D121F042AFAD20D00960752
:1055900001D50C80AD1C1A4000D02C700268001D93
:1055A000002AE7D170BC7047000098599859EA5119
:1055B0008E421E45142E0080EA51F4283233E03A20
:1055C000703DE03AC235842BC2353233C235C23524
:1055D000AE47E03A5038A23050380000BFC9CAB9CF
:1055E000D3C322636F6E66696722C3FCC1EED6D84F
:1055F000D0C2C9E8D6C3C4A3BFE9B2CECAFDA1A335
:105600000D0A000010B5074979441831064C7C4456
:10561000163404E0081D0A68891888470100A14271
:10562000F8D110BD080000002400000041FFFFFF7A
:10563000140300005C0200200000000073BAFFFFAA
:10564000D6000000960100000000002000F00DF8D8
:10565000002801D0FFF7D6FF00BF00BF002000BF29
:1056600000BFFDF7DDFB00F002F80120704780B5B8
:1056700000F002F801BDFEE707463846FCF736F9B0
:10568000FBE7FF2902D90020C043704701700120C9
:1056900070470078401E8041C043C00F704738B546
:1056A00005000C00200000F005F8A04200D0002505
:1056B000280032BD80B50249FEF724FD02BD00BFBF
:1056C000140200206E616E004E414E00696E66004D
:1056D000494E460001488047014800479D53000855
:1056E000E556000800BF00BF00BF00BFFFF7AEFFD8
:1056F000000000000102030400002E004300FEE74A
:10570000FEE7FEE7FEE7FEE7FEE7FEE7FEE7FEE771
:10571000FEE7FEE7FEE7F20200015008418800CAFA
:10572000DE53004D00210C30044D00530010022BBD
:10573000711CC2233A7128422A18F315010001E1B5
:1057400038E170F10701F100A4F10294F1130110A6
:1057500005020214030909006D10018100C23FF027
:10576000132767472707C50044454341574156451E
:105770000000240100200001F300127A3B11704266
:10578000027012A10C12080C252AA321040CF002AD
:1057900007F85600080452FF01F200FA1410010045
:1057A00000FC0C2142D294B420022D1100081012EA
:1057B0003D08123104125104525D144393560852AD
:1057C000833C2101100702040101480400209804D1
:1057D000524804211B6108F40411580200204402BD
:0157E00018B0
:04000005080056E5B4
:00000001FF
