:020000040800F2
:10000000B0070020D1000008011C00080D1B0008EB
:1000100000000000000000000000000000000000E0
:10002000000000000000000000000000D5200008D3
:100030000000000000000000491C0008D720000854
:10004000E3000008E3000008E3000008E300000804
:10005000E3000008E3000008E3000008E3000008F4
:10006000E3000008E3000008E3000008E3000008E4
:10007000E3000008E3000008E3000008E3000008D4
:10008000E3000008E300000800000000E3000008AF
:10009000E3000008E3000008E3000008E3000008B4
:1000A000E30000084D1C0008E3000008312C0008A4
:1000B000E300000800000000E30000080348854654
:1000C00000F060FB00480047B5400008B007002082
:1000D0000448804704480047FEE7FEE7FEE7FEE7E6
:1000E000FEE7FEE75D210008BD00000830B50B46C5
:1000F000014600202022012409E00D46D5409D4202
:1001000005D31D469540491B254695404019154687
:10011000521E002DF1DC30BD10B5202A04DB08464C
:10012000203AD040002110BD0B46D340D0402024BF
:10013000A21A91400843194610BD03460B439B0782
:1001400003D009E008C9121F08C0042AFAD203E04C
:100150000B780370401C491C521EF9D27047D2B272
:1001600001E00270401C491EFBD270470022F6E7F6
:1001700010B513460A4604461946FFF7F0FF20461D
:1001800010BD421C0178401C0029FBD1801A704729
:1001900030B504460020034600E05B1C934203D2C6
:1001A000E05CCD5C401BF8D030BD0000F0B50746E8
:1001B0000846584087B0C00F049048000E465900CA
:1001C00040084908BC1A884105D2384631461E46C7
:1001D00017460B4602465800400810434CD0300DDD
:1001E000039040055900400D490D0590401A0290BA
:1001F000402872DA18030121000B09050843019019
:1002000004980092002805D00199524200208841AC
:1002100000920190029840210A1A0199009800F07A
:10022000FBF905460C466B4607CB00F005FAC019F2
:100230007141039A0E0D0023D71756401A467A4093
:10024000164344D0049A002A2DD0029A012A039A18
:1002500015DC1205C01A914101263605001C7141BA
:10026000D20F059ED2070093019202962A4623469A
:1002700000F002FA07B0F0BD38463146FAE716053D
:10028000224A0F46B218C01AB74101210905001CC5
:100290004F4100187F41114618187941E20F104371
:1002A0006D19644113E0E2076D0815436408C20745
:1002B0001443039A01261205C01A91413605001C09
:1002C0007141CE07400830434908C01851412A46C1
:1002D000234600F0C4F9CDE7FFE70498012240006F
:1002E000C117121A00238B4104983146C417381ADB
:1002F000A141EEE730B40124E407634030BC55E788
:1003000030B40124E407614030BC4FE70000E0FF57
:10031000F0B51FB488B00B9909980024484009999A
:10032000C00F490049080991C0070B990090490086
:1003300049080B9109990898A64608431CD00B99C7
:100340000A98084318D0099801244000420D48003B
:10035000410D099824050003000B204309900B98D8
:100360000003000B20430B9050181C49401800223A
:1003700001901446104605E0002001460DB0F0BD86
:10038000032801DA034600E003239C46C11A0AAEA3
:100390000AE05F0008ADED5B4F00F75B7D4300278F
:1003A000AA187C41491C5B1E6145F2DD410004AB8B
:1003B0005A522104120C0A43240C401C0828DFDB8B
:1003C000019802900099704601910090059B049A53
:1003D0000799069800F050F9D0E700000DFCFFFFE8
:1003E000F0B50C465C4085B0E40FE40703944C0084
:1003F00000266408590094464908024602962243A2
:1004000021D062460A431ED06200570D4A000E03F7
:100410002303550D012402462C492405781B1B0B90
:10042000360B401823432643614600901C46501A61
:10043000B44103D30098401C009002E09218009849
:100440005B41002803DA0020014605B0F0BD002022
:10045000012109050746864611E064461D46141B26
:10046000B54106D36546521BB341744607430C435E
:10047000A646CD0740084908284392185B41054627
:100480000D43EAD11046184313D060461946504038
:100490007140084306D06046101AB34106D20122CB
:1004A000002306E000220123DB0702E00122D24301
:1004B0005310009874460105381C6141029C039D4D
:1004C0000019694100F0CBF8BFE70000FD03000010
:1004D0000EB5C217C10F5040CA0740180021054B86
:1004E0000293019200910A460B4600F0C5F803B052
:1004F00000BD0000330400000EB505490291002143
:1005000000910A460B46019100F0B6F803B000BD19
:10051000330400003EB5CA17CB0F002450405140B1
:10052000C0186141DA07054B0293019200942246FC
:10053000234600F0A1F803B030BD000033040000F2
:1005400070B5CD0F4A0009030123090B1B051943A0
:100550000D4BED070024520D9A4202DA00200146AD
:1005600070BD094B34339A4203DC9A1AFFF7D4FD6D
:1005700003E0064BD21800F04FF82C43F0D00022D5
:1005800040428A41114670BDFF030000CDFBFFFFD2
:1005900010B5002904DB0124E40740428C412146C8
:1005A000002B04DB1C460123DB075242A3418B4294
:1005B00000D1824210BD0000F0B51FB406460020F5
:1005C00082B005464024019100901BE0019922462B
:1005D0000F463046FFF7A0FD049A059B801A99410B
:1005E00010D310461946224600F016F8361A8F41ED
:1005F0000197224601200021009F00F00DF83818D5
:100600004D4100902046641E0028DFDC019B0098CD
:100610002946324607B0F0BD10B5202A04DB01465A
:10062000203A9140002010BD914020239C1A03469F
:10063000E3401943904010BD10B5202A06DBCB17CC
:100640000846203A1041C1170B4306E00B46134100
:10065000D0402024A21A91400843194610BD10B57D
:10066000002B08DA0024401C614192185B411A43B8
:1006700001D14008400010BDF0B51FB482B005465E
:100680000C0003D0084602F06BFB02E002F068FBAE
:1006900020300246009021462846FFF7BDFF049B0C
:1006A000059A04460F4618431143084314D01846D0
:1006B00010431BD0009840210A1A18460599FFF7ED
:1006C0002BFD05460E46009A05990498FFF7A4FFF6
:1006D000084305D0012004E02046394607B0F0BDAC
:1006E0000020C11705430E432C43374300990E9851
:1006F0006305401A7905E40A00220C43FD0A0A301A
:1007000002D500200146E9E70105101969410C9C5A
:100710000D9D00196941FFF7A2FFDFE74A000903B9
:100720000123090B1B0519430A4B10B5520D9A42C0
:1007300002DA0020014610BD064B34339A4203DC36
:100740009A1AFFF7E9FC10BD034BD218FFF764FFBC
:1007500010BD0000FF030000CDFBFFFF10B5002916
:1007600004DB0124E40740428C412146002B04DBDA
:100770001C460123DB075242A341994200D190421B
:1007800010BD0000064C0125064E05E0E36807CCCD
:100790002B430C3C98471034B442F7D3FFF792FC3C
:1007A000CC440008EC44000870B58C180578401C57
:1007B0006B075B0F01D10378401C2A1106D1027828
:1007C000401C03E006780E70401C491C5B1EF9D1EA
:1007D0002B0705D40023521E0DD40B70491CFAE7D9
:1007E0000378401CCB1A921C03E01D780D70491C45
:1007F0005B1C521EF9D5A142D8D3002070BD000069
:100800003EB503F05FFB03F037FD002003F090F9E5
:10081000401C03D1222119A002F08CFA03F022FD22
:100820001E4803F041F8012003F098FA1CA103C907
:100830000291019003F076F901210091694609784F
:10084000009001290FD068460278C1784A40514093
:10085000C1704A4002704178827851404A408270AB
:10086000514041700098104C0190082201A9A01C31
:10087000FFF763FCC52020703EBD00002E2E5C53A8
:1008800072635C6170706C69636174696F6E5C74D3
:1008900061675F626C696E6B2E6300000800002068
:1008A000000000000001CADE5801002010B500F071
:1008B00087F9134C2168401A7D21C90088421ED354
:1008C000002210490C2003F0A7FB002211460C2047
:1008D00003F0B4FB002003F019FB00210F2003F00C
:1008E000ACF90006F9D5802200210F2003F061FB4E
:1008F00004484178491C417000F062F9206010BD45
:10090000040000205801002010B517480078002886
:1009100008D0012810D002281AD0032801D100F0F5
:1009200027F810BD1148FFF72CFC81B20F4802F0E8
:10093000DBF9FFF765FF10BD0C480C30FFF721FC19
:1009400081B20A480C3002F0CFF901F035FC10BD3D
:1009500006481730FFF715FC81B20448173002F043
:10096000C3F901F0C3FD10BD00000020CE42000815
:1009700010B50E4802F098FF0C48083803F098F8BC
:10098000012003F0EBF90A4802F068FF0749002252
:100990000C310C2003F040FB002211460C2003F028
:1009A0004DFB002003F0B2FA10BD0000280100202A
:1009B00080E70100FEE7000010B50B480078002832
:1009C00008D0012809D002280AD0032801D1FFF756
:1009D000F1FF10BDFFF76AFF10BD01F041FC10BD33
:1009E00001F0CEFD10BD00000000002010B5054C48
:1009F00003F015FC03F03CF9A042F9D1FFF784FFA6
:100A000010BD00003001CADE70B50024014620315F
:100A10004A78022A03D004218163012416E0026887
:100A200013680E25AB431360026813685B085B0014
:100A300013600122056C1346AB40C56B6B604A70B6
:100A400000220A70416B002900D08847204670BD03
:100A500031B500F0B5F8009C0546601C00D0641C60
:100A600000F0AEF8401BA042FAD338BDF8B5002321
:100A70008DE001249C40A44622407DD04C68022C8D
:100A800001D0122C0CD1DC08A40027183C6A5D07A9
:100A9000ED0E0F26AE40B4430E69AE4026433E62D3
:100AA00005685E000324B4400F79A543BF07BF0F5C
:100AB000B7402F4307604D68012D05D0022D03D0AC
:100AC000112D01D0122D0ED18568CF68A543B740F6
:100AD0002F43876047686546AF430D79ED06ED0FFC
:100AE0009D403D434560C568A5438C68B4402C4398
:100AF000C4604C68E40049D5284CA56901263543FB
:100B0000A561A4699D0834400094254CAD002F19BF
:100B1000BC689D072E0F0F25B540AC430925ED0697
:100B2000A84201D100250FE01E4DA84201D10125A8
:100B30000AE01D4DA84201D1022505E01B4DA84247
:100B400001D1032500E00525B5402543BD60184CC3
:100B500025684E689543F60300D515432560656802
:100B60004E689543B60300D515436560A5684E6889
:100B70009543F60202D500E008E01543A560E5685C
:100B80004E689543B60200D51543E5605B1C0A68C4
:100B90001446DC4000D06CE7F8BD000000100240B5
:100BA000000001400004004800080048000C004814
:100BB00000040140002A01D08161704781627047C2
:100BC00001480068704700005001002070B5040023
:100BD0000FD021681348086021681348086003CCCF
:100BE00041602068083C21688860FFF7E9FF0546FE
:100BF00008E0012070BDFFF7E3FF401B272801D963
:100C0000032070BD2068C0680028F4D12068026904
:100C1000E1688A4201D0016101E0044901600020DD
:100C200070BD0000CCCC000055550000AAAA000001
:100C3000006802490160002070470000AAAA000075
:100C400002480168491C0160704700005001002003
:100C500010B506480168102211430160032000F01E
:100C600007F800F017F8002010BD00000020024037
:100C700010B5044600F04AF97D21C900FFF736FAA5
:100C800000F06EFD00222146501E00F029F80020E1
:100C900010BD000008B50C48816901221143816133
:100CA00080691040002200901146501F00F018F893
:100CB00000221146901E00F013F803210022081FA5
:100CC00000F00EF808BD000000100240C106C90E79
:100CD00001208840014908607047000000E100E001
:100CE00010B500F08FFF10BDF8B505460068394C0F
:100CF000C00352D5E0690026C00007D4E169200492
:100D00000143E161E1690140012600913248016837
:100D1000C90510D40168821511430160FFF750FF27
:100D2000074604E0FFF74CFFC01B642824D82A487C
:100D30000068C005F6D5206A03273F02384020D05E
:100D40006968394081421CD0206A226AB843012177
:100D500009040A432262226A8A4322622062C0078F
:100D60000FD0FFF72DFF009008E0FFF729FF009953
:100D7000411A1A48814201D90320F8BD206A800730
:100D8000F3D5206A6968B84308432062002E04D076
:100D9000E169012000078143E1612878C00705D09F
:100DA000206BA968800880000843206328788006AB
:100DB00005D5206B10218843E96808432063288803
:100DC000400505D5206B40218843296908432063ED
:100DD0000020F8BD001002400070004088130000A1
:100DE000F8B5054644480E460068C007C00FB0423B
:100DF0000AD241480168490849003143016000684E
:100E0000C007C00FB0425CD128783C4C800705D5A4
:100E10006068F0218843A968084360602878C007AB
:100E20003FD06868012813D02168022813D08907B1
:100E3000002946DA61688908890001436160FFF78B
:100E4000BFFE6968074601290DD0022917D024E0AA
:100E500021688903ECE78901EAE7FFF7B1FEC11BCE
:100E60002748814217D860680007800F0128F4D115
:100E700017E0FFF7A5FEC11B214881420BD860682F
:100E80000007800F0228F4D10BE0FFF799FEC11B89
:100E90001B48814201D90320F8BD60680007800F1C
:100EA000F3D115480168C907C90FB1420BD90168D0
:100EB00049084900314301600068C007C00FB042D3
:100EC00001D00120F8BD2878400706D560680721C9
:100ED00009028843E9680843606000F02DF8616802
:100EE000084A0906090F515CC840074908600320F9
:100EF000FFF7BEFE0020F8BD0020024000100240B7
:100F000088130000B2440008540100200148006822
:100F100070470000540100200448054900684968F2
:100F2000044A4905490F515CC840704754010020EC
:100F300000100240C244000810B512A30FCB88B0C5
:100F40006C460FC413A30FCB0FC416494A680C207C
:100F5000134603401448042B0FD0082B0DD19302E5
:100F60001B0F6C46E45CC96A04AB0907090F595CA6
:100F7000D20304D5FFF7BAF8604308B010BD0B48A0
:100F80006043FAE702030405060708090A0B0C0D83
:100F90000E0F10100102030405060708090A0B0CC6
:100FA0000D0E0F100010024000127A0000093D00E3
:100FB000FEB504460078D04DC00747D068680007EA
:100FC000800F012807D068680007800F022809D128
:100FD0006868C00306D52868800337D56068002894
:100FE0007ED033E0012062680004012A11D0810024
:100FF000002A01D0052A10D02A6882432A60286876
:10100000884328606068002814D0FFF7D9FD0646A1
:101010000CE0296801432960F4E72A680A432A6042
:10102000F7E7FFF7CDFD801B64286FD828688003A1
:10103000F7D50BE0FFF7C4FD064604E0FFF7C0FD5F
:10104000801B6428F1D828688003F7D42078012613
:10105000800700283BDA68680007800F07D06868BF
:101060000007800F022809D16868C00306D42868E9
:10107000800715D5E068012832D111E0E06800282A
:10108000286815D030432860FFF79AFD074604E032
:10109000FFF796FDC01B0228C7D828688007F7D540
:1010A0002868F82188432169C900084328600EE0B8
:1010B000400840002860FFF783FD074604E0FFF783
:1010C0007FFDC01B0228B0D828688007F7D420789D
:1010D000000724D5E0690028686A10D0304300E09A
:1010E00008E16862FFF76CFD074604E0FFF768FD62
:1010F000C01B022899D8686A8007F7D50FE040081E
:1011000040006862FFF75CFD074605E09DE0FFF7E1
:1011100057FDC01B022888D8686A8007F7D420785A
:1011200004274007002860DA00200190E869C00029
:1011300008D4E969B8060143E961E9690140012081
:10114000009101906D480168C90511D401688215AC
:1011500011430160FFF734FD009005E0FFF730FD1B
:101160000099401A642870D864480068C005F5D515
:10117000A06801280AD0002801D0052810D0286ACC
:10118000400840002862286AB84301E0286A3043DA
:101190002862A068002812D0FFF712FD00900AE034
:1011A000286A38432862F1E7FFF70AFD0099411ADF
:1011B0005348814249D8286A8007F5D50DE0FFF7EA
:1011C000FFFC009006E0FFF7FBFC0099411A4C4839
:1011D00081423AD8286A8007F5D40198002804D0C3
:1011E000E969012000078143E9612078C00635D50F
:1011F000606901280CD0401D686B23D038436863B8
:10120000686B400840006863FFF7DAFC064622E09E
:10121000686B38436863686B30436863FFF7D0FCE2
:10122000064604E0FFF7CCFC801B02285BD8686B05
:101230008007F7D5686BF8218843A169C900084386
:1012400068630BE0B8436863F4E74CE0FFF7B8FC71
:10125000801B022847D8686B8007F7D4206A0028D3
:1012600046D069680907890F022943D0012636064E
:101270000228286805D0B0432860FFF7A1FC044687
:1012800033E0B0432860FFF79BFC074604E0FFF71C
:1012900097FCC01B022826D828688001F7D4E86A8A
:1012A000E16A000900010843E862616AA06A084334
:1012B00069683D22120491430843686028683043FE
:1012C0002860FFF77DFC044604E0FFF779FC001B73
:1012D000022808D828688001F7D509E0FFF770FCDC
:1012E000001B022801D90320FEBD28688001F5D427
:1012F0000020FEBD0120FEBD001002400070004035
:101300008813000010B50449002008707A2103A05A
:1013100001F010FD10BD00004C0100202E2E5C538A
:1013200072635C706C6174666F726D5C706F727406
:101330002E630000F8B504460068426881684B06D9
:1013400005D4CB0703D0530601D5E16C04E08B072D
:1013500005D5130603D5216D20468847F8BDFF2328
:1013600061331942FAD09306F8D523464D0640332F
:10137000002D09DA5D7F032D3CD0256E0426354310
:101380002566C568856800958E060125002E08DA59
:10139000266E2E4326668668009606684027BE4362
:1013A0000660C80506D5206E08210843206620681F
:1013B00080680090206E0028D0D020684168E02628
:1013C000B14341605D77900718D020684168890873
:1013D00089004160A06D0B4D002803D04563A06DCE
:1013E000FFF712FB606D0028B8D04563606DFFF712
:1013F0000BFBF8BDC16880680090F8BD2046FFF780
:1014000081FFF8BD511E0008F8B5040007D0002682
:1014100025464035A662687F002802D005E00120FD
:10142000F8BD2E77204600F04BF802236B7720683A
:1014300001684022914301600721E0680902884267
:1014400001D9002201E0012212030F273F02B84216
:1014500002D0884200D0A662276B002F05D18842B7
:1014600001D9236301E001202063A16860686369FA
:1014700008432169194308430123A1695B0219400C
:101480000843E1690843216A0843A16A08432168C7
:101490000860616B606AA36908431B0C0427E1685C
:1014A0003B40194308432168104348602068C169E4
:1014B0007A029143C1612666012068770020F8BD59
:1014C00000B500680D4987B0884215D10C48826983
:1014D00081140A438261806908400590E0200090F1
:1014E0000220019000210320039002910491092021
:1014F0006946C006FFF7BAFA07B000BD00300140E8
:1015000000100240F0B513460246846800254032C0
:10151000C668002C03D14468E71FFD3F0AD0147F42
:10152000012C0DD001241477577F0024012F09D0FE
:1015300002253EE0042454770A4600F047F8F0BD47
:101540000220F0BD002916D0002B14D004275777B5
:10155000046601649380D38084638487C4870723EF
:101560001B02B90204659E4203685E6805D98E437A
:101570005E60114904E001251BE00E435E600F49E7
:10158000C16401238168DB03994205D101680B68BE
:101590000126B603B3430B6001684B6860263343F2
:1015A0004B6000680168490603D401684023194371
:1015B000016014772846F0BD271F00084D1F000862
:1015C00001490120087070474C010020F0B5044625
:1015D0008C464034217F0025C768964601290CD0EF
:1015E00001212177667F4168012E0CD0CA1FFD3A88
:1015F00007D18168002904D101E00220F0BD042E4A
:1016000001D0022540E0614600291BD07146002927
:1016100018D0002B16D0617F042901D005216177F5
:1016200000210166614681638387C3877146016437
:10163000A380E380072109028F4205D9144AC264BE
:10164000144A04E001251FE0134AC264134A0265EC
:10165000012212038F4202D8E188022903D30168D4
:101660004B68934302E001684B6813434B60016889
:101670004A68E0231A434A6000680168490603D4B7
:101680000168402211430160002020772846F0BD08
:101690005D1C0008F11C0008931C0008251D0008B3
:1016A000F0B5034640331C7F0025C668012C0BD0E3
:1016B00001241C770024002908D0002A06D05F7F6F
:1016C000012F05D002252DE00220F0BD012529E0E3
:1016D00003275F77046681638287C28704649C80E6
:1016E000DC8007210902C4648E4201D90F4900E061
:1016F0000F49016501228168D203914205D1016839
:101700000A680126B60332430A6001684A68A026C7
:1017100032434A6000680168490603D401684022E8
:10172000114301601C772846F0BD0000711F0008BE
:10173000931F000801490120087070474C010020E8
:1017400070470000042204490428086902D090432D
:10175000086170471043FBE700E000E070470000BD
:10176000094910B5401E884201D9012010BD074C1F
:1017700060610321081F00F045FA0020A0610720E6
:101780002061002010BD0000FFFFFF0000E000E02E
:1017900010B5FFF7E3FF10BD7047000010B5202122
:1017A00003466033597299720122054900F00CF921
:1017B000002803D0D22103A001F0BCFA10BD000024
:1017C000410100202E2E5C5372635C6170706C6965
:1017D000636174696F6E5C756172742E63000000E2
:1017E000F8B503680446D869196805072D0F07D1B5
:1017F000820605D58A0603D5204601F0DFF8F8BD3C
:101800009A68002D64D0D507ED0FFF2621360E40D3
:101810002E435DD0C60706D0CE0504D501261E6234
:10182000E36E3343E366870702230426002F06DABC
:10183000D70704D027683B62E76E3743E766470760
:1018400006D5D20704D022681662E26E1A43E26619
:10185000020709D520220A402A4305D0236808221E
:101860001A62E36E1343E366E26E002AC7D0800675
:1018700004D5880602D5204601F0A0F8E06E0007E6
:1018800003D42068806840061CD5204601F07AF811
:1018900020688168490611D58168402291438160A2
:1018A000606E00280AD01A494163606EFFF7ACF8F9
:1018B0000028A4D0606E416B8847F8BD2046FFF732
:1018C0006DFFF8BD2046FFF769FF0020E066F8BD18
:1018D000C5020DD552020BD501200005186220214A
:1018E00020466030417281722046FFF755FFF8BDF7
:1018F000020605D50A0603D5204601F035F9F8BDE4
:101900004006FCD54806FAD5204601F04AF8F8BD55
:101910007129000870B5040005D025466035687A45
:10192000002802D006E0012070BD00202872204669
:1019300000F026F8242068722068016849084900F0
:101940000160204601F078F80128EDD0606A002897
:1019500002D0204600F072FF206841680922D202BE
:1019600091434160206881682A2291438160206808
:101970000168012211430160204600F0C5FF70BDDF
:1019800000B500680E4987B0884217D10D488269BA
:10199000012189030A438261806908400590032080
:1019A0004002009002200190012103200390029147
:1019B000049109206946C006FFF758F807B000BD3A
:1019C000003801400010024070B5034660339C7A35
:1019D000202C39D100290BD0002A09D00125846898
:1019E0002D03AC4206D10669002E03D1CE0701D0EB
:1019F000012070BD1E7A012E26D001261E7241657F
:101A0000014640310A834A83FF22AC4204D1046973
:101A1000002C07D10D4A05E0002C04D10469002CEC
:101A200000D07F228A830021C16622229A72197215
:101A300001688A6832438A6000680168FF222132A7
:101A400011430160002070BD022070BDFF01000045
:101A500070B506460068114988421DD1104C00251A
:101A60006178242900D1A570A0780E4A402811542D
:101A700001D2401CA0700A2908D10A49A278084660
:101A80004030FEF75AFBA078E070A57004490122AF
:101A9000491C3046FFF798FF70BD00000038014038
:101AA000400100201002002030B5034660335C7A0C
:101AB000202C23D100290BD0002A09D001258468CD
:101AC0002D03AC4206D10469002C03D1CC0701D010
:101AD000012030BD1C7A012C10D0C1640146403178
:101AE0000A824A820021C16621225A721972006854
:101AF0000168802211430160002030BD022030BD0A
:101B0000014900200870704740010020FEE70000F6
:101B100070B5174886B04269012149040A43426101
:101B200042690A400592426949000A43426140699C
:101B30008124084009262401F60605900122214649
:101B40003046FFF737F800940024012501950294F0
:101B5000694630460394FEF789FF064801906946BE
:101B6000009502940448FEF781FF06B070BD0000A6
:101B700000100240000011100004004810B5114888
:101B80000F490160FF21053141600021072281607A
:101B900012020161C260012241615202826101624E
:101BA00018224162C26181620722C2620163082178
:101BB0004163FFF729FC002800D0FEE710BD0000BC
:101BC00000300140D802002010B50C480A490160DD
:101BD000E1214902416000218160C16001618161B0
:101BE000C1610C22016242614162FFF793FE00284D
:101BF00000D0FEE710BD0000003801403C0300208B
:101C0000704700008307FF22DB0E9A408907090E08
:101C1000994000280BDA0007000F083883080848AD
:101C20009B001818C36993430B43C3617047830833
:101C300004489B001B1818689043084318607047BD
:101C400000ED00E000E400E07047000010B502483D
:101C5000FFF770FB10BD0000D802002010B501682E
:101C6000C968026C1180016C891C01640146403115
:101C7000CA88521ECA80C988002909D101684A68E9
:101C800040239A434A60C18F002901D100F06EF8C9
:101C900010BD10B501464031CC880368026C012CA0
:101CA00011D9DB681380026C921C0264CA88921EF0
:101CB000CA80CA88012A0DD102685368012424030E
:101CC0002343536006E01C7B531C03641470CA88D2
:101CD000521ECA80C988002909D101684A68602358
:101CE0009A434A60C18F002901D100F03FF810BD2E
:101CF00010B5816B02680988D160816B891C816392
:101D0000C18F491EC187C18F00290AD101684A6865
:101D100080239A434A604621095A002901D100F0E4
:101D200025F810BD10B5C38F0268816B022B07D355
:101D30000988D160816B891C8163C18F891E05E090
:101D40004B1C836309781173C18F491EC187C18FF2
:101D500000290AD101684A6880239A434A604621D3
:101D6000095A002901D100F001F810BD70B50446F0
:101D7000FEF726FF0246206841682025A9434160FE
:101D80006421204600F0A9F8002802D0206E2843E4
:101D90002066226E204601214030002A04D041777F
:101DA0002046FFF7AFFA70BD427F4177042A2046F4
:101DB00002D0FFF7C5FC70BDFFF702FC70BD10B587
:101DC000044600684168602291434160FEF7F8FED6
:101DD00002466421204600F044F8002803D0206E1B
:101DE00020210843206601215D200155206E002836
:101DF000204602D0FFF786FA10BDFFF7E1FB10BDC9
:101E000038B50446FEF7DCFE024620684168A02390
:101E1000994341606421204600F05FF8002803D018
:101E2000206E202108432066A068002803D1206886
:101E3000C1688068009001215D200155206E002856
:101E4000204602D0FFF75EFA38BDFFF773FC38BDBD
:101E500010B5406A002146221152C187FFF752FA9D
:101E600010BDF7B504464068FF26053682B015461A
:101E7000B0420CD10121A068C903884202D04911A7
:101E8000884204D120680168402291430160009596
:101E9000002280212046039B00F0D6F8202700284E
:101EA00013D16068B04216D1A068B902884202D04E
:101EB000491188420FD10321009500224902204692
:101EC000039B00F076F8002805D0206E384320668A
:101ED000032005B0F0BD0020FBE7F8B50F460B4628
:101EE00015460092032104460022C90200F061F861
:101EF0002026002812D13B46002280212046009552
:101F000000F0A2F8002809D103213B460022490233
:101F10002046009500F04DF8002803D0206E304395
:101F200020660320F8BD10B50168C968026C1180F5
:101F3000016C891C016401464031CA88521ECA8066
:101F4000C988002901D1FFF73AFF10BD10B501681B
:101F50000B7B016C4A1C02640B7001464031CA883D
:101F6000521ECA80C988002901D1FFF728FF10BD81
:101F700010B5816B02680988D160816B891C81630F
:101F8000C18F491EC187C18F002901D1FFF738FFDA
:101F900010BD10B5816B4A1C826302680978117309
:101FA000C18F491EC187C18F002901D1FFF728FFCA
:101FB00010BDF8B51D4617460E4604463DE0032108
:101FC00049028E4205D1002F03D1017B6846017082
:101FD0000078681C31D0002D05D0FEF7F1FD069980
:101FE000401AA84229D320684168E0229143416009
:101FF0006068C11FFD390CD10121A068C903884266
:1020000002D04911884204D12068016840229143DE
:1020100001600120A16A4003814207D121680A685A
:1020200082430A6021680A6802430A600120403442
:102030006077002020770320F8BD20688168314058
:10204000B942BCD10020F8BDF8B51D4617460E4672
:10205000044633E0681C31D0002D05D0FEF7B0FDFA
:102060000699401AA84229D320684168E02291438A
:1020700041606068C11FFD390CD10121A068C9030E
:10208000884202D04911884204D120680168402268
:10209000914301600120A16A4003814207D1216878
:1020A0000A6882430A6021680A6802430A600120C4
:1020B00040346077002020770320F8BD20688168D5
:1020C0003046884304D00020B842C3D10020F8BD78
:1020D0000120F9E7704710B5FEF7B2FDFFF758FB96
:1020E00010BD70B596B00A2000240090102009940D
:1020F000049001250520C004039502260A90089645
:1021000007950B946846FEF753FF002800D0FEE7C2
:1021100007200C900E9401210D960F940CA8FEF749
:102120005FFE002800D0FEE710A810951294FEF77D
:10213000DBFD002800D0FEE7FEF7E8FE7D21C900A8
:10214000FDF7D4FFFFF70CFB0420FFF7FBFA032198
:102150000022081FFEF7C4FD16B070BD13480168C9
:102160000122114301604168114A11404160016838
:10217000104A1140016001680122920491430160FC
:1021800041683F22120491434160C16A0909090173
:10219000C162016BFF22543291430163416B4908D4
:1021A0004900416300218160704700000010024037
:1021B0000CB8FFF8FFFFF6FE1CB501F083FE02F03D
:1021C0005BF8012001F0B4FC401C03D1982117A05A
:1021D00000F0B0FD02F046F81C4801F065FB00205D
:1021E00001F046FE012001F0B9FD18490C220878E3
:1021F0006C465043164A135C237049788018890056
:1022000040580190684601F053FC124C204601F002
:10221000FFFD204601F046FE0F4801F0E8FD0F48A3
:1022200001F000FE102001F0DBFD1CBD2E2E5C53E2
:1022300072635C6170706C69636174696F6E5C7409
:1022400077725F696E69742E630000005000002091
:10225000F042000834400000520300003421000026
:10226000FEB5984C00222046617844308170217878
:10227000817101460C2001F0CFFE012200210C20CB
:1022800001F0DCFE022001F041FE8F4F00210F2003
:1022900001F0D3FC38426060F8D08A484178491C8C
:1022A0004170808840047CD58122D20100210F201A
:1022B00001F07FFE0021102001F0BFFC4106490E15
:1022C000142903D80022814801F0F4FC7F497D489D
:1022D0000B7A0278934265D100248C7050300272E0
:1022E00001460A227948FDF753FF0028F3D1002662
:1022F0003546684601F0EFFC04206946320E2D0297
:10230000154332020E5C1643401EF7D56D488660B9
:10231000C56000252E46084601F0D5FC042069461C
:102320002A0E360216432A020D5C1543401EF7D5CD
:102330002846644D664A6E612861002180184E412E
:102340003106060A0E43304601F000FD71084900CF
:10235000080E604B0902C91800225041A961E861CA
:1023600028466930EB68AA6801F085FE28466D3082
:102370006B692A6901F07FFE28467130EB69AA6912
:1023800001F079FE284669785F3081702978817183
:1023900001460022182001F03FFE012200211820F2
:1023A00001E07AE078E001F049FE002001F03AFD1A
:1023B000032001F0ABFD002876D100210F2001F0B1
:1023C0003CFC38426860F8D0A888400455D500210C
:1023D000102001F032FC4106490E142903D80022D6
:1023E0003A4801F067FC0122920300210F2001F01E
:1023F000E0FD36482978027A8A4245D18470314816
:102400000A227730017201463048FDF7C1FE0028EC
:102410003AD12C4E2D4F0146203603C60A370446CA
:10242000083E385DE1008840FEF752F80CCE083EC9
:10243000FDF7BCFE641C71603060042CF1DB264AA1
:10244000264B696A286AFDF763FF1322E9621206C8
:10245000234BA862FDF75CFF0022696313462863E3
:10246000FEF796F802D200F0EBFB0DE02B7801228C
:10247000696B286B00F0F0FB06E01A4A00210F2080
:1024800001F097FD01F056FC6878401C687001F07F
:102490001DFB154801F0C6FC06E0124A00210F2082
:1024A00001F087FD01F046FC3220FEF7D1FA054825
:1024B0000178491CC9B20170032901D901210170B9
:1024C000FEBD00001800002000D027246401002079
:1024D0000000AC0D34400000FA48CE3B1835B13D49
:1024E00019DDB14100902724342100001CB501F012
:1024F000E9FC01F0C1FE012001F01AFB401C03D1F0
:10250000932114A000F016FC01F0ACFE194801F074
:10251000CBF9002001F0ACFC012001F01FFC1549B3
:102520000C2208786C465043134A135C2370497898
:102530008018890040580190684601F0B9FA0F4CA4
:10254000204601F065FC204601F0ACFC102001F0B3
:1025500047FC1CBD2E2E5C5372635C6170706C690D
:10256000636174696F6E5C7477725F726573702EED
:1025700063000000D00000205043000834400000F9
:10258000F0B58DB0002001F04DFC002001F0ABFB58
:10259000A24EA34C00210F2001F04FFB304260609F
:1025A000F8D0A08840047DD50122920300210F209D
:1025B00001F0FFFC0021102001F03FFB810501200C
:1025C000890D8002814203D80022964801F072FBF7
:1025D000944D0027AF70297A617091492F720A22B9
:1025E0003C312846FDF7D4FD00287CD101F04EFD9A
:1025F0008D4BE160A0600022C01851410906000A1D
:10260000084301F0A3FBAF20800001F0F0FB4B205A
:10261000800101F007FC82482178483081706178A0
:102620008171014600220F2001F0F6FC01220021F9
:102630000F2001F003FD032001F068FC401C52D084
:1026400000210F2001F0F9FA30426060F8D02078C4
:10265000401C2070A0884004A5D58122D201002111
:102660000F2001F0A6FC0021102001F0E6FA41063F
:10267000490E182903D800226A4801F01BFBAF70ED
:10268000297A62783846914200D1287264490A2238
:1026900057316448FDF77CFD002824D100263546DB
:1026A00003A800E0B1E001F016FB042003A9320EFC
:1026B0002D02154332020E5C1643401EF7D52661EB
:1026C000656101F0E3FCE161A06156480BA90A30A5
:1026D00001F0C4FC53480CA90E3001F0BFFC514876
:1026E00005A9123000E05FE001F0B8FCA068089096
:1026F000A66925690C9801900B99401AFDF7FCFE1C
:1027000006900791701BFDF7F7FE06460F460599E8
:102710000198081AFDF7F0FE029008980191281A16
:10272000FDF7EAFE0546089132463B4607990698B2
:10273000FDF73CFD019B029AFDF738FD2A46089BF8
:10274000FDF734FD09910A902A46089B01990298E9
:10275000FDF7DEFD0191054632463B460799069896
:10276000FDF7D6FD2A46019BFDF7C4FD099B0A9A99
:10277000FDF736FEFDF7E4FE05460E46FDF7CAFE00
:102780002A4A2B4BFDF7C4FD132261621206294B26
:102790002062FDF7BDFD0022E1621346A062FDF755
:1027A000F7FE03D200F04CFA0DB0F0BD1C497931B0
:1027B00000200D5432062D0A1543360A401C042809
:1027C000F7DB174960786F3188710022102001F023
:1027D00023FC00221146102001F030FC002001F003
:1027E00095FB00210F2001F028FA0006F9D5802280
:1027F00000210F2001F0DDFB01F068F90123627870
:10280000E16AA06A00F028FACEE70B4A00210F2007
:1028100001F0CFFB01F08EFAC6E7000000D02724BC
:10282000A0000020780100200000AC0DFA48CE3B4B
:102830001835B13D19DDB1410090272410B5818CC8
:10284000C90707D001684A6801235B049A43836A79
:102850001A434A60818C890707D501684A680123B9
:102860001B049A43C36A1A434A60818C490707D5FF
:1028700001684A6801239B049A43036B1A434A6028
:10288000818C090707D501684A680123DB039A4355
:10289000436B1A434A60818CC90607D50268916868
:1028A00001231B039943836B19439160818C890633
:1028B00007D501688A6801235B039A43C36B1A43F7
:1028C0008A60818C490612D503685A68012109057E
:1028D000046C8A4322435A60026C8A4207D1026820
:1028E000516803235B059943436C19435160818C04
:1028F000090607D501684A680123DB04806C9A4306
:1029000002434A6010BD0000F8B500260446C666C2
:10291000FEF756F905461449206888421DD1006823
:10292000124F000709D501212B46002249052046F8
:10293000009700F04CF900280DD12068006840078E
:102940000BD501212B46002289052046009700F077
:102950003EF9002801D00320F8BD202060346072C9
:10296000A07226720020F8BD00380140FFFFFF0171
:1029700010B5406A0022014640314A834A82FEF780
:102980000DFF10BD01680A68FF2321339A430A60D6
:1029900001688A68520852008A6020216030817282
:1029A000704710B501680A6840239A430A602022E4
:1029B00069210A54FFF7A4F8002010BD70B5024643
:1029C000403203466033948B9D7A0168222D05D0F6
:1029D0008869082210438861022070BD898C012615
:1029E00085683603B54202D10569002D0BD0214020
:1029F000446D651C45652170518B491E0904090C05
:102A0000518307D015E0456D21402980416D891C17
:102A10004165F1E701680A68FF242134A2430A6096
:102A200001688A68520852008A6020219972FFF773
:102A30000FF8002070BD0000F8B504462369A268B5
:102A4000E5691A43636910202B43002125681A4366
:102A50002B680E463E4F3B4013432B6023685A6859
:102A600003252D03AA43E5682A435A60236AA26915
:102A700025681A43AB680B273F02BB431343AB6087
:102A8000344A2568954210D1334A126B9207920F4F
:102A90000ED0012A05D0022A05D0032A09D102202E
:102AA00007E0042005E0082003E02C4A954200D10D
:102AB00000200122E369D203934224D100280CD0E4
:102AC00002280DD0042813D0082817D001260A099F
:102AD00012010807400F10432FE0FEF71DFA09E02E
:102AE00061681F4A48088018FDF700FB81B2EEE7D5
:102AF000FEF722FA616840004A08F4E761680122A3
:102B000048081204EFE7002808D0022809D004285A
:102B10000BD0082814D001263046F8BDFEF7FCF98A
:102B200005E061680F4A48080CE0FEF705FA6168A5
:102B30004A088018FDF7DAFA80B22168C860EBE72E
:102B4000616848088018FDF7D1FA80B2E860E3E7D1
:102B5000F369FFFF003801400010024000440040CC
:102B60000024F40000127A006921095C212901D0B7
:102B70000220704702464032518A002912D00123B8
:102B800081681B03994202D10169002915D0C16CEB
:102B90004B1CC364006809780185508A401E50822E
:102BA0000020704701680A6880239A430A60006821
:102BB0000168402211430160F2E7C16C0368098893
:102BC000C905C90D1985C16C891CC164E5E7FFB54C
:102BD00081B017460E4604460A9D1DE0681C1BD0B6
:102BE000002D05D0FDF7ECFF0499401AA84213D937
:102BF00020680168FF22A13291430160206881684A
:102C0000490849008160202060346072A072002071
:102C10002072032005B0F0BD2068C16930468843AA
:102C200004D00020B842D9D00020F3E70120F9E712
:102C300010B50248FEF7D4FD10BD00003C03002093
:102C400010B50448FDF79DFA81B2024800F04CF837
:102C500010BD0000BE430008FEB504460D461E46EA
:102C6000174640210948FDF781FA33463A4608A144
:102C700006480195009400F05FF80448FDF781FADA
:102C800081B2024800F030F8FEBD00009001002043
:102C900024444953542C4D25642C5325642C25324F
:102CA0002E32660D0A00000010B5012205490648C3
:102CB000FEF78AFE002803D0802104A000F03AF835
:102CC00010BD0000410100203C0300202E2E5C536B
:102CD00072635C6170706C69636174696F6E5C755E
:102CE0006172742E630000000A4610B508490B7823
:102CF000002BFCD101230B7001460648FEF7D4FEE1
:102D0000002803D0722104A000F014F810BD0000C8
:102D1000400100203C0300202E2E5C5372635C6156
:102D200070706C69636174696F6E5C756172742E2A
:102D300063000000FEE700000FB410B504A9074BC4
:102D400002AA039800F0B2F9044602A9002000F09C
:102D500049FD204610BC08BC04B01847E537000800
:102D60002021020C01D010211046020A01D0104689
:102D70000839020901D01046091F820801D0104607
:102D8000891E420801D0881E7047081A704730B467
:102D90007446641E2578641CAB4200D21D46635DF8
:102DA0005B00E31830BC184702E008C8121F08C1D6
:102DB000002AFAD170477047002001E001C1121FBC
:102DC000002AFBD1704710B5002202212C2001F00F
:102DD000FFF8022211462C2001F0FAF810BD000085
:102DE00010B504466D2207492E2001F0F1F806497E
:102DF000002C01D0054A00E0054A2E2001F0CEF853
:102E000010BD0000060800000618000007060000BC
:102E10000716000010B5002000F006F8002204217B
:102E2000362001F0BBF810BD38B504466B460222CF
:102E30000021362000F022FFB3212300FFF7A7FF77
:102E40000F1009163B3B3B3B1D283B3B303549509F
:102E50003B0000216846017040784108490014E0B9
:102E60006946087880088000401C04E069460878BC
:102E700080088000801C08701DE0684602780A40C7
:102E8000483202704178802001436846417012E068
:102E9000684602780A40027040784106490EF4E71D
:102EA000694648780221084303E069464878FD21D5
:102EB0000840694648706B4601220021362001F027
:102EC0008FF8012200AB11463620013301F088F85B
:102ED00038BD69460878CF21084069462030CAE7E6
:102EE0000121684601700321D0E710B50E20FFF7DD
:102EF0009BFF0122D20306212D2001F04FF8012073
:102F000000F075FC0120FFF78FFF10BD10B582B2F5
:102F100004212D2001F042F8032206212D2001F08A
:102F200057F8002206212D2001F052F80A212D2009
:102F300000F083FE10BD0000F0B51FB486B0099804
:102F4000089A030D0021024314D05148514A181821
:102F5000504305141198012810981AD0281A401CC3
:102F600000264D4F4D49009601910490002812DA39
:102F7000444211E01198012449A3012801D110987D
:102F8000C1430698119A84600360C26041600BB02F
:102F9000F0BD4042E4E70446210500203F4A001C02
:102FA00051410391029012E0E00707D032463B46C0
:102FB00001990098FDF7ACF90191009032463B462B
:102FC00010461946FDF7A4F906460F466410002C7A
:102FD000EAD10498039B0028029A0999089806DA16
:102FE000FDF796F9019B009AFDF792F905E0FDF7D0
:102FF000F7F9019B009AFDF7F3F904460E4600220B
:10300000284BFDF7ABFB03D80020C043014607E087
:103010000022254B20463146FDF7C8F8FDF77EFB20
:10302000102409E0002C0ADB0A220023FDF7C4FA71
:10303000079B30321A55641E02460A43F2D1112210
:10304000641C079B121B1C19119B012B03D001232D
:1030500008430ED10AE0084304D01120109000204C
:10306000119077E71098151A6D1E0BE010988242A8
:1030700002DD00236D1C03E0824201DA00236D1E95
:10308000002BEED0069811998260C16030C07EE7B7
:1030900001FCFFFF104D0000000014400000F03F55
:1030A000300000000000F0430000E03FFFB597B0A3
:1030B0000646002518E2252877D100242746FD4939
:1030C000049400E00443761C32780120203A9040BA
:1030D0000842F7D130782A280ED0022230780146F3
:1030E0003039092916D804990A2359433039401830
:1030F0001443761C0490F1E7189802C804911890C4
:10310000002904DA012040030443484204900220CD
:103110000443761C30782E2814D1042004437078A0
:10312000761C2A2809D11898761C80C8189009E0C6
:103130000A214F43303FC719761C30780146303999
:103140000929F5D930786C2810D006DC4C281AD023
:1031500068280ED06A2817D104E0742813D07A2882
:1031600012D110E00120400504430CE001210905C3
:1031700001E0032109050C437178814203D101204C
:1031800000052418761C761C3078119066280BD028
:1031900013DC58287DD009DC00287BD04528F6D0E8
:1031A0004628F4D047281AD1A5E118E0632835D085
:1031B000642870D0652812D19DE170286CD008DC9D
:1031C0006728F1D069287BD06E280DD06F2806D1F2
:1031D000BAE073282ED0752871D0782859D01A9A61
:1031E000199990476D1C7EE16002400F022809D0BA
:1031F00003280DD00428189801680DD00D60001D1B
:10320000189070E11898EA1701680D604A60F6E7B7
:10321000189801680D80F2E70D70F0E718986A467B
:1032200001781172001D18900020507202A80090C1
:10323000012005E0189802C8189000200091C043B2
:1032400061070DD5002101E00199491C0191B942A6
:1032500012DA8142F8DB009A515C0029F4D10BE0CC
:10326000002101E00199491C01918142FADB019A98
:103270000099895C0029F5D1019904981A9B471A95
:1032800021463846199A00F097FA019940194518D5
:103290000BE04FE02CE113E04EE00098009900783D
:1032A000491C00911A9A199990470198401E019063
:1032B000401CF2D1214638461A9B199A10E137E09A
:1032C0000A200021009001916002410F022907D0DD
:1032D000189A01CA1892C2179446032908D00AE026
:1032E0001898C01DC108C90005C91891944607E087
:1032F00000B2C2179446042902D140B2C1178C46CD
:1033000000226146944506DA0A4600214042914176
:103310008C462D2102E0210504D52B216A4611732C
:10332000012103E0E10701D02021F7E7029155E0F8
:103330000A200AE0102008E010200090002104205C
:1033400004430191082703E0082000210191009027
:103350006002410F022907D0189A01CA1892002270
:103360009446032908D008E01898C01DC108C90078
:1033700005C91891944603E080B2042900D1C0B277
:1033800000210291210729D51199702906D0009AB0
:103390001021019B4A401A4305D00EE040216A46A5
:1033A0001173012108E06146014306D030216A46CD
:1033B00011731199517302210291009A0821019B06
:1033C0004A401A430AD16146014301D1610705D53C
:1033D00030216A46117301217F1E029111995829EB
:1033E00004D035A10E910DA90D910DE037A1F9E79B
:1033F0006146019B009AFDF7DFF80E9B8C469B5CB3
:103400000D9A521E0D92137061460143F0D10D9832
:1034100005A9081A20300190600703D50120000497
:10342000844300E001270198874201DD381A00E05B
:103430000020019900904118029809180498401A38
:103440000490E00306D421461A9B199A049800F0D0
:10345000B3F94519002706E003A81A9AC05D199927
:1034600090476D1C7F1C02988742F5DBE0030CD56A
:1034700021461A9B199A049800F09EF9451904E018
:103480001A9A3020199990476D1C0099481E009097
:103490000029F5DC08E00D980D990078491C0D9184
:1034A0001A9A199990476D1C0199481E019000299C
:1034B000F1DC63E10928010030313233343536372D
:1034C0003839616263646566000000003031323370
:1034D0003435363738394142434445460000000010
:1034E00000F05AF94519761C3078002800D0E2E542
:1034F00028461BB0F0BD600700D406271898C01DF1
:10350000C108C90048680A680831C30FDB07189171
:10351000190001D09CA108E0210501D59BA104E080
:10352000E10701D09AA100E09AA1430011985B083D
:10353000109165280CD006DC452809D046281DD0FE
:10354000472841D141E0662818D067283CD13CE0AB
:103550000021112F01DB112000E0781C0191009067
:1035600008A911A8FFF7E8FC139905910021119A09
:1035700015927F1C12980197009150E00120C0071E
:1035800003900120019008A9009711A8FFF7D4FC2F
:10359000139A149905920022119B00921298159388
:1035A000059A0192002901D0104602E0791C4018CA
:1035B0000190381A01D5019804E04042401E009065
:1035C000781C0190C01B029043E0012F00DA012714
:1035D0000021112F01DD112000E0384601910090FB
:1035E00008A911A8FFF7A8FC13990591119A0021C9
:1035F000129815920091019721070CD40599B942B0
:1036000001DB019900E00191012904DD159A491EB1
:10361000515C302906D0B84201DA011D05DA0121DA
:10362000029115E00199491EEDE7002805DC00999B
:10363000411800910199091A03E0019A411C914235
:1036400000DD01910099401A401C02900120C00742
:103650000390200706D402990198814202DB0020E2
:10366000C043029000206946C87707AF0121039844
:103670000337C907884224D0022011902B201290D2
:10368000039800280CDA404203902D20129007E0A6
:103690000A210398FCF72AFD30317F1E0390397010
:1036A0001199481E11900029F2DC03980028EFD1EF
:1036B000791E129808703078202108404530BF1ECE
:1036C000387006A8C01BC01D039010980078002811
:1036D00000D00120019941180298C01709180398D9
:1036E00009180498401A401E0490E00306D42146AD
:1036F0001A9B199A049800F05FF845191098007801
:10370000002803D01A9A199990476D1CE00324D51C
:1037100021461A9B199A049800F04EF845191CE0AE
:103720000098002807DB00990598884203DD15986A
:10373000405C199901E0199930201A9A9047009835
:103740006D1C401C00900298401E0290002804D17D
:103750001A9A2E20199990476D1C0199481E0190C4
:103760000029DDDC05E038781A9A7F1C199990470A
:103770006D1C0399481E03900029F4DC21461A9B16
:10378000199A0498ACE600002D0000002B00000000
:103790002000000000000000F8B5044600251E4689
:1037A0001746880404D405E039462020B0476D1C34
:1037B000641EF9D52846F8BDFFB50446002581B042
:1037C0001E46C80301D5302700E02027880404D511
:1037D00005E038460399B0476D1C641EF9D52846AC
:1037E00005B0F0BD0A68531C0B601070704710B52F
:1037F000FDF72EF910BD10B5002801D000F096FCA1
:1038000010BD10B500F09AFC040001D000F086FC59
:10381000204610BDFDF7EAF8FFF746FAFDF774F809
:10382000FDF7CAF80448FDF703FA0028F8D0212173
:1038300002A0FFF77FFAF3E7C80200202E2E5C53A8
:1038400072635C6170706C69636174696F6E5C64F3
:10385000775F6D61696E2E630000000010B504464D
:10386000FFF7D8FAFF2252030021282000F0A1FB25
:103870000C4A0021282000F09CFB0220FFF7D4FA1C
:103880000D20FFF7D1FA042C00D204242246002197
:103890000A2000F08EFB102224212F2000F098FB3C
:1038A00010BD000000FF5F00FEB50446002001903F
:1038B00000906079704940000E5A60782578401E6B
:1038C000C7B2042D76D0072D74D0002002906B482B
:1038D000E3790068012292054169002B6CD0914385
:1038E0004161217A01720321426909048A434261DC
:1038F000217A8907890B0A4342610021042000F0E4
:1039000058FB32465E492E2000F048FB3846FFF750
:1039100067FA5C4E5C49705D80000A5807212B20D5
:1039200000F047FB705D59490A5C0B212B2000F029
:103930004FFB574902980A5C0B21282000F048FBF6
:10394000705D544980000A580C21282000F031FB9A
:10395000E079514980004018A1794900425A02217A
:10396000272000F01BFB4D487E00825B04212720AE
:1039700000F014FBE079002822D0A078042825D09C
:1039800020220621272000F009FB282226212720BB
:1039900000F01EFB424938014018E1788900425886
:1039A0000821272000F005FB6089002815D016E0CB
:1039B00000E001E0012089E71143F608416190E74A
:1039C00064220621272000F0E9FAE3E7102206210D
:1039D000272000F0E3FA1022D8E73248608182B253
:1039E0002021272000F0DAFA2F4F0C2123203A68FB
:1039F00000F0DFFAF01982880421232000F0CEFACB
:103A0000A07900280AD0E07928490A5C0021212009
:103A100000F0DEFA03200190012000902A07120F27
:103A200010010243607800218007000B02430198D7
:103A3000000502430098400402432079C006400973
:103A400002436079C00602431F2000F0B2FAA0785A
:103A5000617808430204E0790021400302430748EB
:103A60000068C260082000F0A4FA422200210D2064
:103A700000F0AEFAFEBD00008044000848010020BE
:103A80000428000002440008244400083C440008C4
:103A9000424400080C440008504400085C440008FC
:103AA0006044000841100000444400084C440008F1
:103AB00010B5044602780B212A2000F089FA002173
:103AC0001E20626800F075FA10BD000070B500217C
:103AD0000E2000F0B2F80446FFF793FE05460022E0
:103AE00011460E2000F065FA402200210D2000F062
:103AF0006FFA0A4A00210F2000F05BFA00F03CFA4E
:103B0000224600210E2000F054FA2846FFF773FEEB
:103B1000034900200968887670BD0000F8FF27245B
:103B200048010020014800680068704748010020F3
:103B300070B5374C054621680020487488760883A4
:103B40008862C8620863486300F092F8314988428D
:103B500001D0881770BD00F0B5F90020FFF764F9B7
:103B600004220021242000F033FA1E20FFF7CEF9B2
:103B700086B22168300A48720420FFF7C7F90006B0
:103B8000000E0AD0022212212D2000F021FA206816
:103B90000122018B1203114301830620FFF7B6F9BE
:103BA000216808600720FFF7B1F9014620684160ED
:103BB000F106C90E017401D110210174C8B200F0E0
:103BC00078F9E80708D0FFF790F920680122018B07
:103BD000D202114301830AE00521362000F01EF8CD
:103BE0000D49084002460521362000F0D7F9012092
:103BF000FFF71AF900220A212C2000F0E9F9002130
:103C0000042000F01AF821684861002070BD00000F
:103C1000480100203001CADEFFFD000008B589B26E
:103C200080B26B46022200F029F868464078010213
:103C300068460078081880B208BD38B5002489B2FB
:103C400080B26B46042200F019F803216846435CF9
:103C50002202D418491EFAD5204638BD08B589B2CB
:103C600080B26B46012200F009F86846007808BD72
:103C700010B500210846FFF7E0FF10BD38B5002958
:103C800009D0402420436C462070C8B27F2906D852
:103C9000607002200AE069460870012006E0802476
:103CA00020436C466070C809A0700320694600F08C
:103CB00095FA38BD10B5144603460A462146112030
:103CC000FFF7DCFF10BD10B50346052200211520CB
:103CD000FFF7D4FF10BD10B50346052200211720C1
:103CE000FFF7CCFF10BD70B50446400701D400F0CB
:103CF00043F9FF2501352A46E00701D003221202CD
:103D000000210D2000F04AF9E00711D003210F2017
:103D1000FFF7A4FF00070BD5FFF7D8FEA00704D4D8
:103D20002A4600210D2000F039F90020C04370BD63
:103D3000002070BD10B5E0220321362000F048F9C4
:103D4000F0220321362000F043F910BD10B50246E1
:103D500001210A2000F02DF910BD000070B50546C4
:103D60001C4CC0072CD000212620FFF766FF052140
:103D7000A0438902084302460021262000F019F9D9
:103D800000213620FFF759FF21218904084302460C
:103D90000021362000F00DF9FF2411340E4EA80743
:103DA00000D50E4C28212246362000F002F9A80743
:103DB00005D52246B2432821362000F0FAF870BD1E
:103DC00000212620FFF739FFA043024600212620CC
:103DD000F3E70000003C000000000F0010010F009E
:103DE00010B502462421272000F0D8F810BD10B5E8
:103DF000044600211A20FFF720FF000D22030005D2
:103E0000120B024300211A2000F0D3F810BD00006D
:103E100010B5024602492E2000F0C0F810BD000087
:103E200004180000F8B5074603210420FFF716FF29
:103E300001260E4D36070446002F0BD03A460021CE
:103E40000C2000F0ABF8102022460243286841699C
:103E5000314305E0EF202246024028684169B14322
:103E600041610321042000F0B3F8F8BD48010020AF
:103E700010B5044600210420FFF7DFFE08490122A7
:103E8000096892044861002C01D0904300E010437F
:103E9000486102460021042000F08BF810BD0000AC
:103EA0004801002010B502460021182000F076F8E5
:103EB00010BDC20610B5D20E0E212B20603200F0CC
:103EC00087F810BD10B5FEF7A5FF002211462C2083
:103ED00000F064F8002206212C2000F079F8FEF7AB
:103EE00072FF00220321362000F072F80120FFF754
:103EF0007EFCF0220321362000F06AF802490020FF
:103F00000968887610BD000048010020F8B500253A
:103F10000746184E2C46800708D5802422460021EB
:103F20000D2000F055F8316801208876F80718D088
:103F300022460620024300210D2000F049F803210B
:103F40000F20FFF76BFE8121C900084210D04022EC
:103F500000210D2000F03CF800203168451E8876D5
:103F600006E002200443224600210D2000F030F834
:103F70002846F8BD4801002010B503210F20FFF7A7
:103F80006DFEC10940221040C9014000814204D0A9
:103F9000012203210D2000F01BF810BD08B56B466F
:103FA0001A70120A5A7089B280B2022200F018F810
:103FB00008BD38B500236C46E254120A5B1C042B82
:103FC000FADB89B280B22346042200F009F838BD3A
:103FD00007B589B280B202AB012200F001F80EBD34
:103FE00038B58024002909D0C02528436D462870A3
:103FF000C8B27F2907D86870022009E020436946CB
:104000000870012004E020436870C809A8700320EC
:10401000694600F03BF938BD10B51446012312186B
:104020009B029A4207D80B46821E21460920FFF7C1
:10403000D7FF002010BD0020C04310BD8905D2036A
:10404000114310B5044A1268D26802430A430021A2
:104050000820FFF7AEFF10BD4801002010B5002278
:104060000A60835CD400A3400C68521C1B190B60CF
:10407000042AF6DB10BD10B5002142541C06120ABA
:1040800022431B0A491C0429F7DB10BD7CB5002420
:1040900025466846FFF717FE04206946220E2D02CA
:1040A000154322020C5C1443401EF7D520462946D6
:1040B0007CBD0000FCF7CCFDFEF713F8FDF728FDF2
:1040C000134812490160032141601249C16012493D
:1040D0008160FCF77BFD002800D0FEE7FDF74EFD78
:1040E000FDF772FD002211461920FCF7F9FD192099
:1040F000FCF7ECFD002211461B20FCF7F1FD1B2014
:10410000FCF7E4FDFFF786FBFEE70000003000400F
:10411000C8020020FF0F0000E204000002484168CE
:1041200049084900416070470004014002480121EC
:1041300042680A4342607047000401400248006838
:10414000C007C00F704700000004014010B5094CC3
:10415000002222700A4601460748FDF7D3F90028DD
:1041600003D0602105A0FEF7E5FD20780028FCD0F3
:1041700010BD00004C010020D80200202E2E5C5300
:1041800072635C706C6174666F726D5C706F727478
:104190002E63000010B5094C002222700A46014629
:1041A0000748FDF77DFA002803D0532105A0FEF74C
:1041B000C1FD20780028FCD010BD00004C0100207B
:1041C000D80200202E2E5C5372635C706C617466A2
:1041D0006F726D5C706F72742E630000FFB581B0FA
:1041E00014460546FFF70DFB09270646FF06002289
:1041F00010213846FCF7DEFC29460298FFF7CAFF7B
:10420000A1B20498FFF7A2FF012210213846FCF763
:10421000D1FC3046FFF7EFFA002005B0F0BD70B5D5
:1042200086B00125112000240926ED02F606019032
:1042300002946946009503943046FCF717FC00226F
:1042400029463046FCF7B6FC0320039001946946EA
:10425000009502943046FCF709FC0220FCF7F8FBBD
:1042600006B070BD10B503491020C8610846FDF7BF
:10427000CBF810BDD802002010B503492020C8613A
:104280000846FDF7C1F810BDD8020020FFB581B087
:1042900014460546FFF7B5FA09270646FF06002231
:1042A00010213846FCF786FC29460298FFF772FF7A
:1042B000A1B20498FFF76EFF012210213846FCF7E7
:1042C00079FC3046FFF797FA002005B0F0BD544165
:1042D0004720424C494E4B0D0A0054575220494E3C
:1042E00049540D0A0054575220524553500D0A00AC
:1042F000000000000000000000000000C9000000F5
:104300007555351567472707C200000075553515E7
:1043100067472707C50000006F4F2F0F8B6B4B2B94
:10432000950000005F3F1F1F9A7A5A3AC0000000B4
:104330004828080E856545250000000000000000A3
:10434000000000009300000092725232D1B171510E
:10435000000000000000000000000000C900000094
:104360007555351567472707C20000007555351587
:1043700067472707C50000006F4F2F0F8B6B4B2B34
:10438000950000005F3F1F1F9A7A5A3AC000000054
:104390004828080E85654525000000000000000043
:1043A000000000009300000092725232D1B17151AE
:1043B000244F4B0D0A0024494E49540D0A00244550
:1043C00052524F520D0A002456455220312E30329F
:1043D0000D0A00245457522C53746172740D0A0054
:1043E000245457522C53746F700D0A0024524551B7
:1043F000554553540D0A002456455253494F4E0D0E
:104400000A0000000102030400050000405C0000F7
:10441000A05C0400C06C0800805C0400E03F1E004B
:10442000E07D1E0007040009080540080910400847
:10443000080540081D0400081D0400081E26562615
:10444000BEBED8BC07A9022570889B884010080012
:104450000A001600010006000100020087008D001E
:104460002D001A3152001A339A001A351D011A37DD
:104470006B003B31BE003B335E013B3596023B3760
:10448000000098599859EA518E421E45142E00801A
:10449000EA51F4283233E03A703DE03AC235842BD9
:1044A000C2353233C235C235AE47E03A5038A23059
:1044B000503800000000000000000102030406075D
:1044C000080900000000010203040000EC44000899
:1044D0000000002058010000A80700085845000807
:1044E0005801002058060000B82D000872012F0264
:1044F00002080209090E43210469180130A9481372
:10450000418814CADE53244D0121390C144D015346
:10451000431002791BE22379270A472A8013014DB1
:10452000798011AB530180191B0913801927698009
:1045300032C2100B67472707020214030909193D0D
:10454000128112C5A0094445434157415645139075
:0845500002922013127A000010
:04000005080000BD32
:00000001FF
